:020000040800F2
:10000000483B01205D020008FF2600086F2400081D
:10001000FD260008A90A0008A12800080000000029
:100020000000000000000000000000009D0100082A
:10003000B90A000800000000F901000801270008C3
:1000400077020008770200087702000877020008AC
:10005000770200087702000877020008770200089C
:10006000770200087702000877020008770200088C
:10007000770200087702000877020008770200087C
:10008000770200087702000877020008770200086C
:10009000AD0A00087702000877020008770200081E
:1000A00077020008CD2700087702000877020008D1
:1000B000770200087702000877020008770200083C
:1000C000770200087702000877020008770200082C
:1000D000770200087702000877020008770200081C
:1000E000770200087702000877020008770200080C
:1000F00077020008770200087702000877020008FC
:1001000077020008770200087702000877020008EB
:1001100077020008770200087702000877020008DB
:1001200077020008770200087702000877020008CB
:10013000770200080D0B000877020008770200081C
:1001400077020008770200087702000877020008AB
:10015000770200087702000877020008770200089B
:10016000770200087702000877020008770200088B
:1001700077020008770200087702000800000000FC
:100180007702000877020008DFF80CD000F0D2FBFD
:1001900000480047716F0008483B01202C4B19684C
:1001A0000868B0E8F04F80F30988BFF36F8F4FF015
:1001B000000080F3118870470000000008480068C4
:1001C000006880F308884FF0000080F3148862B65E
:1001D00061B6BFF34F8FBFF36F8F00DF00BF00BF6B
:1001E00008ED00E0DFF80C00016841F470010160E7
:1001F000704700BF88ED00E0EFF30980BFF36F8F19
:10020000134B1A681EF0100F08BF20ED108A20E96A
:10021000F04F106009B44FF0500080F31188BFF325
:100220004F8FBFF36F8F13F00BFC4FF0000080F384
:10023000118809BC19680868B0E8F04F1EF0100F6B
:1002400008BFB0EC108A80F30988BFF36F8F704746
:10025000C0400020EFF3058070470000064880474B
:1002600006480047FEE7FEE7FEE7FEE7FEE7FEE79B
:10027000FEE7FEE7FEE7FEE7B12700088901000878
:100280002DE9F05F0546002092469B4688460646CB
:10029000814640241BE0284641464746224600F05E
:1002A00031F953465A46C01A914110D311461846A7
:1002B000224600F018F92D1A67EB01084F46224636
:1002C0000120002100F00FF917EB00094E41201E1C
:1002D000A4F10104DFDC484631462A464346BDE826
:1002E000F09F000000487047404D01080649074A4A
:1002F0000868504343F239021044086040087047D0
:100300000149086070470000A80000106D4EC6410A
:1003100010B5431A934209D28318881803E010F8E5
:10032000011D03F8011D521EF9D210BD40EA010360
:100330009B0703D009E008C9121F08C0042AFAD29B
:1003400003E011F8013B00F8013B521EF9D210BD49
:10035000D2B201E000F8012B491EFBD27047002207
:10036000F6E710B513460A4604461946FFF7F0FFB4
:10037000204610BD421E12F8013F002BFBD111F8A0
:10038000013B02F8013B002BF9D1704730B505461F
:100390002A460B4612F8010B13F8014B08B1A04294
:1003A000F8D01CB1002802D06D1CF1E7284630BD02
:1003B00010B5044604E00B7800F8013B03B1491C7A
:1003C000521EF8D2204610BDCAB2401E10F8011FBE
:1003D0008A4202D00029F9D100207047421C10F84F
:1003E000011B0029FBD1801A704730B5044600205C
:1003F000034600E05B1C934203D2E05CCD5C401BF3
:10040000F8D030BD10B5044600E0401C0378002B46
:10041000FBD100E0401C521E04D311F8013B0370D5
:10042000002BF7D100210170204610BD30B50546E4
:100430000020034600E05B1C934205D2EC5CC85CE4
:10044000201A01D1002CF6D130BD2DE9F04791469C
:100450000F4680460446002614F8015B2DB1FFF7D5
:1004600041FF0068405DC007F6D12B2D02D02D2D35
:1004700018D0641E4A463946204600F053F827B18A
:100480003968A14201D1C7F8008071054FF002041C
:100490000BD54042002803DD02F038FA0460A007C3
:1004A000BDE8F08746F48066E4E70028F8DA02F059
:1004B0002DFA04606FF00040F2E730B50B460146BC
:1004C00000202022012409E021FA02F59D4205D3F3
:1004D00003FA02F5491B04FA02F52844151EA2F19D
:1004E0000102F1DC30BD202A04DB203A00FA02F1DF
:1004F000002070479140C2F1200320FA03F3194312
:1005000090407047202A04DB203A21FA02F00021B3
:10051000704721FA02F3D040C2F120029140084313
:10052000194670472DE9F05F82460078002715468E
:100530008B460AF10104B946302801D09DB113E081
:1005400014F8010B0127782803D0582801D045B1B1
:100550000AE00DB1102D07D10027102514F8010B6A
:1005600002E0082500E00A250026B0460EE005FB63
:10057000080005FB06F1012701EB10461FFA80F881
:10058000B6F5803F00D3B94614F8010B294600F0B8
:10059000F5F90028EBDABBF1000F05D00FB1641EAE
:1005A00000E05446CBF80040B9F1000F06D002F04D
:1005B000ADF902210160C81EBDE8F09F48EA06407F
:1005C000FAE72DE9FE4F804681EA0300C00F0C4692
:1005D000009021F0004123F00045B8EB0200A94152
:1005E00005D24046214690461C460B46024623F063
:1005F0000040104347D0270DC7F30A00C3F30A5148
:100600000290401A019040286BDAC3F3130040F4C3
:10061000801B0098924620B10023D2EB030A63EBC3
:100620000B0B01985946C0F140025046FFF75BFFA3
:1006300006460D4650465946019A00F08DF910EBDA
:1006400008006141002487EA115284EAE7731A43E3
:1006500040D0009A62B3019A012A4FEA075215DC92
:10066000001B61EB02014FF0004202EA0752CDE9A4
:100670000042001C41F5801132462B4600F09BF9E8
:1006800003B0BDE8F08F40462146F9E7001B61EB5F
:100690000201001C41F5801300185B412018A2F5EF
:1006A000001747EB030140EAD570B6196D4111E020
:1006B0006D084FEA360645EAC0754FEA0752001B3F
:1006C00061EB0201001C41F5801149084FEA30003E
:1006D0000019514132462B4603B0BDE8F04F00F0FF
:1006E0005BB90098012240000023D0EB020263EBCB
:1006F000E073009821464FEAE074B8EB000061EB2C
:100700000401E9E783F000435BE781F0004158E72B
:100710002DE9FE4F81EA030404F0004421F000417A
:1007200000944FF0000B23F0004350EA01045ED028
:1007300052EA03045BD0C3F30A54C1F30A552C44B4
:10074000A4F2F3340194A0FB0254C1F3130141F469
:100750008011C3F3130343F4801301FB024400FB35
:10076000034E840A970A44EA815447EA8357A4FB5C
:10077000076802958D0A05FB07854FEA932C04FB59
:100780000C542705029D4FEA065847EA1637B5EB89
:1007900008056EEB070C870E920E47EA811742EAB6
:1007A0008312A7FB0201B6EB0B0164EB00042B0DD7
:1007B00043EA0C335E1844EB1C50DA465146E7FB23
:1007C0000201C5F313044FEA0B3343EA14534FEA13
:1007D0000432019C43EA0603A4F10C040294009C39
:1007E000CDE900B400F0E7F803B0BDE8F08F0020D9
:1007F0000146F9E72DE9F04D81EA030404F0004BCE
:1008000021F0004514464FF0000A23F0004150EA61
:10081000050220D054EA01021DD0C5F30A57024652
:10082000C5F31303C1F31300C1F30A5640F4801556
:1008300043F48013A7EB0608101BD64608F2FD38D8
:1008400073EB050002D308F1010801E092185B4147
:10085000B8F1000F03DA00200146BDE8F08D00205A
:100860004FF48011064684460EE0171B73EB050714
:1008700005D3121B63EB050306434CEA010C490840
:100880004FEA300092185B4150EA0107EDD152EA7D
:10089000030012D082EA040083EA0501084305D070
:1008A000101BAB4106D20122002306E000224FF0CC
:1008B000004302E06FF0010253101AEB06004CEB0C
:1008C000085110EB0A0041EB0B01BDE8F04D00F0C0
:1008D00063B8C1F30A52C1F3130140F2FF3341F48C
:1008E00080119A4202DA00200146704740F23343F9
:1008F0009A42A2F2334202DC5242FFF703BEFFF7F4
:10090000F2BD000030B5041E71F1000404DB4FF0AD
:100910000044404264EB0101141E73F1000405DB46
:100920001C464FF00043524263EB0403994208BF58
:10093000904230BD064C074D06E0E06840F00103F0
:1009400094E8070098471034AC42F6D3FFF720FC38
:10095000B44F0108F44F0108202A06DBCB17203AD8
:1009600041FA02F043EAE07306E041FA02F3D040B4
:10097000C2F1200291400843194670473A2800D23C
:10098000303820F02002412A01D3A2F137008842FA
:1009900001D34FF0FF30704710B5141E73F10004FF
:1009A00008DA401C41F1000192185B411A4301D161
:1009B00020F0010010BD2DE9F04D92469B4611B18B
:1009C000B1FA81F202E0B0FA80F220329046FFF7ED
:1009D0008AFD04460F4640EA0A0041EA0B015346ED
:1009E0005A46084313D0114653EA010019D0C8F102
:1009F00040025046FFF786FD05460E4650465946D2
:100A00004246FFF770FD084305D0012004E0204670
:100A10003946BDE8F08D0020054346EAE0762C43D8
:100A200037430A986305E40AA0EB08000022FD0A98
:100A300044EA47540A3002D500200146E9E701059F
:100A400010196941DDE9084500196941BDE8F04D1B
:100A5000A2E770B58C1810F8015B15F0070301D1FF
:100A600010F8013B2A1106D110F8012B03E010F811
:100A7000016B01F8016B5B1EF9D12B0705D4002334
:100A8000521E0DD401F8013BFAE710F8013BCB1AD6
:100A9000921C03E013F8015B01F8015B521EF9D5CB
:100AA000A142D8D3002070BDFEE70000014800F04D
:100AB000C7B80000180B001070470000064908B5C1
:100AC00009684FF4FA52B1FBF2F14143009100BFC3
:100AD000491E0091FBD208BDBC40002038B5044639
:100AE000006800F58050816941F4801181612068BF
:100AF00000F58050806900900120FFF7DFFF20683B
:100B0000009900F58050816138BD0000014800F077
:100B1000D2BB0000207300202DE9F041044621B132
:100B20004FF40060E060C000A060E069002500288C
:100B300061D028462368402619683A4A1140D4E912
:100B400002273A43024342F40070084318602068C9
:100B50000768012000F04AFA2068076020684660B4
:100B600020684668012000F041FA2068466020684D
:100B700085602068C560216888694FF64172104021
:100B800040F08000886120688669012000F02EFA1C
:100B9000206886612068C5612068C569012000F071
:100BA00025FA2068C561226802F5805290691E49C5
:100BB00008401E4901439161206800F58050856915
:100BC000012000F013FA206800F58050856120684C
:100BD000174900F580500160206800F580500568D5
:100BE000012000F003FA206800F580500560A0693C
:100BF000012803D009E04FF480609BE7206800F5EE
:100C00008050C1690B4A1143C16160690A498288F9
:100C10000A640278D0F8010042EA00204864BDE886
:100C2000F08100000F8120FF233FDEF80400200246
:100C30008020C102400001000080024070477047E0
:100C40002DE9F05F0546006800244669D0F804905D
:100C50008768D0F80CB0D0F810A0D0F81880F10751
:100C600048D0F90714D001218160B80703D5284680
:100C700000F0B6F90CE0780702D54FF4006407E005
:100C8000380702D54FF4805402E0284600F0A7F957
:100C9000F80516D529684FF480708860B80503D52B
:100CA000284600F09FF90CE0780502D544F4005482
:100CB00007E0380502D544F4804402E0284600F0FD
:100CC00090F9F80316D529684FF480308860B8038E
:100CD00003D5284600F088F90CE0780302D544F4E7
:100CE000004407E0380302D544F4803402E028468B
:100CF00000F079F9300707D55FEACB6004D52968A1
:100D0000102044F40074C86070074FF0080707D53E
:100D10005FEA0B7004D52868C760284600F05AF9CE
:100D2000B00706D52868C068800702D0284600F0C2
:100D300052F9700607D55FEACA6004D52968102009
:100D400044F480640861B00607D55FEA0A7004D5F0
:100D500028680761284600F03FF9F00606D52868A4
:100D60000069800702D0284600F037F9B00308D5A3
:100D70005FEAC96005D5296810204860284600F060
:100D80002DF9F00307D55FEA097004D5286847609C
:100D9000284600F02AF9300446D55FEA497040D56C
:100DA000F00504D55FEAC87001D044F00104B00535
:100DB00004D55FEA887001D544F00204700504D5BB
:100DC0005FEA487001D544F00404300529D518F0D5
:100DD000700F26D008F07000402815D006DC1028CF
:100DE00009D020280AD0302816D10AE050280ED089
:100DF000602811D10EE044F008040DE044F0100426
:100E00000AE044F0200407E044F0400404E044F029
:100E1000800401E044F480742868816921F0700145
:100E20008161296804204860002C05D0686A20434D
:100E300068622846FFF703FFBDE8F09F70B5040025
:100E400003D094F8200010B104E0012070BD2046CA
:100E500000F082F82068016821F00201016000F0D2
:100E600041FE0546052604E000F03CFE401B0A2832
:100E700011D8206840688007F6D42068016841F0E6
:100E80000101016000F02EFE05460BE000F02AFE95
:100E9000401B0A2806D9606A40F40030606284F87A
:100EA0002060D2E720684068C007EFD0207E01288C
:100EB000206801683DD021F080010160607E01283A
:100EC0002068016838D021F040010160A07E01282F
:100ED0002068016833D021F020010160E07E012804
:100EE000206801682ED041F010010160207F0128A8
:100EF0002068016829D021F008010160607F012885
:100F00002068016824D021F004010160D4E90201C5
:100F10000843D4E90412114308436168491E084399
:100F20002168C86100206062012084F82000002050
:100F300070BD41F08001C0E741F04001C5E741F0DC
:100F40002001CAE721F01001CFE741F00801D4E702
:100F500041F00401D9E7000010B586B00446142121
:100F60006846FFF7FCF918492068884229D11748DC
:100F70000021026842F000720260006800F0007018
:100F8000059012481038026842F0010202600068C1
:100F900000F0010005904FF4C05000900220CDE910
:100FA000010103200390092004906946084800F0DD
:100FB000B7FC00220521142000F020FE142000F0D0
:100FC0000FFE06B010BD0000006400404038024033
:100FD0000000024070477047704770477047704785
:100FE00070477047704770477047704770B5044648
:100FF00000F078FD0546601C02D0044800780444E7
:1010000000F070FD401BA042FAD370BDB04000203C
:101010002DE9F041054690F845000C46012875D0B1
:10102000012685F84560022085F84400002C70D028
:101030002A68116841480140D4E900031843D4E903
:1010400002373B431843AB6818432369184363696D
:101050001843EB681843A3691843E3691843236AEC
:101060001843636A1843A36A18430843106028684A
:1010700007680120FFF7BAFF28680760D4E90B0171
:101080000843D4E90D1211430843E16B0843216C76
:101090000843616C0843A16C0843296848602868CC
:1010A00047680120FFF7A2FF286847602968E06CC5
:1010B00088602968206DC8602A6891694FF6417080
:1010C0000140D4E916031843B4F85470236E43EA80
:1010D00007431843636E1843A36E18430843906197
:1010E000286887690120FFF781FF28688761D4E9B4
:1010F0001B0108432968C8612868C4690120FFF7FB
:1011000075FF2868C46114E000E002E00220BDE839
:10111000F0812968086820F49042D5E90203184359
:1011200010430860286804680120FFF75FFF286803
:10113000046005F8446F00206870E8E70F8120FF25
:101140002DE9F04390F845400025012C0DD04FF0DB
:10115000010C80F845C0022480F8444044F2F45762
:101160004FF000495E1E816217E00220BDE8F08367
:1011700001EB4514C4F80090C5EBC51808EB48080E
:1011800002EB8808C4E90178B54204D204F12008D2
:10119000C4F80C8000E0E1606D1C9D42E8D3026859
:1011A00002F58052D16080F844C0002180F84510DB
:1011B0000846DBE72DE9F043914690F845200024EE
:1011C000012A0AD0012680F84560022280F84420D6
:1011D0004FF4801C5D1EC1621BE00220BDE8F0835D
:1011E00001EB4412C2F800C0C4EBC41707EB470878
:1011F00009EB88079760C7691FB9176847F440076C
:101200001760AC4203D202F12007D76000E0D16042
:10121000641C9C42E4D3026802F58052116180F89C
:101220004460002180F845100846D7E7704730B584
:1012300090F845100023012908D0012280F84520AC
:10124000022180F844100024816A1AE0022030BD97
:101250000D685B1CC5F30125022D0AD00D6815F43D
:10126000407F09D04163836B5B1C8363012B12D0E9
:1012700012E08263016302E0856B6D1C8563C968BF
:1012800081620D68002D01DB042BE1D300F8442FAF
:101290004470012030BD01630B68C3F30D431B1F75
:1012A000C363036B9B680364C96840F8281F027717
:1012B0004477002030BD70B50446006800F58050CA
:1012C00041694FF0000549064FF0010608D5204658
:1012D00000F0DAF92068402100F58050416109E012
:1012E0004069C0070AD0204600F0DCFA206800F50B
:1012F0008050466184F8446084F8455020684FF47B
:10130000803100F580504161206800F580504069CF
:1013100000040CD52046FFF789FF20684FF40041F8
:1013200000F58050416184F8446084F8455070BDF8
:101330002DE9FC474FF000060400B146009603D0AB
:1013400094F8440018B107E00120BDE8FC8784F858
:101350004560204600F0E2F86648016841F48041AB
:101360000160006800F4804001906348016821F446
:10137000000101600168226A11430160206800F5E4
:101380008050016841F00101016000F0ABFB0546AF
:101390004FF4FA7709E000BF00F0A4FB401BB8420D
:1013A00003D9032004F8440F67E0206800F580505B
:1013B0000068C007F0D12068006920F01C0500F02B
:1013C00009FD4E494E4A0144914202D245F00805BA
:1013D00016E04C494C4A0144914202D245F00C05BA
:1013E0000EE04A494A4A0144914209D34949084416
:1013F0004949884202D245F0040501E045F0100554
:10140000206805614FF400420021204600F04CFAAC
:101410000125A8BBFF20FFF7E9FD606888B300F055
:1014200061FB804641F288376A460121204600F080
:10143000E9F800F057FBA0EB0800B84217D8009875
:101440004007F1D54FF480520021204600F02CFADD
:10145000B0B900F047FB80466A460121204600F003
:10146000D1F800F03FFBA0EB0800B8420AD90121F7
:101470002046FFF751FB04F8445F0320667064E7E1
:1014800024E018E000988006E6D56A461F21204631
:1014900000F0B8F8D0B90098C10603D54FF4006148
:1014A000E16000E0E660400701D5A66019E04FF476
:1014B0008040A06015E0E068A168C00840EA5100E3
:1014C00082B20021204600F0EFF930B10121204620
:1014D000FFF722FB84F8445036E740F6FF70FFF731
:1014E00085FD49462046FFF717FB84F8445000204D
:1014F0002BE70000443802400438014000D3CEFE00
:10150000C0E1E40040F1E9FD40787D0100796CFC28
:10151000005A6202001F0AFA80F0FA02F0B587B0A2
:10152000044614216846FEF71AFF314920688842B4
:101530005BD130480024016841F00071016001680E
:1015400001F000710591016841F08061016001685E
:1015500001F080610591016841F00061016001685E
:1015600001F000610591016841F00401016001682A
:1015700001F004010591016841F001010160016879
:1015800001F001010591016841F00201016000686C
:10159000022500F0020005903220CDE9000502AAE4
:1015A00003260B2782E8D0006946134800F0B8F9FB
:1015B0008620CDE9000502AA694682E8D0000F48DE
:1015C00000F0AEF94FF46050CDE9000502AA69467B
:1015D00082E8D0000A4800F0A3F9002205213D204E
:1015E00000F00CFB3D2000F0FBFA07B0F0BD00005E
:1015F00000800240303802400008024000000240F3
:10160000000402402DE9F047044690F8440091465A
:1016100082281DD0822084F84400226810694FF689
:10162000FF7500F01C03208A05EAC02018434FF420
:10163000F86303EA8111014321F0020040F0010543
:10164000156100F04FFA064601274FF4803810E08C
:101650000220BDE8F08700BF00F044FA801B40453F
:1016600005D304F8447F002060700320F1E7206870
:101670000569E807F0D12068406981B2C9F8001017
:1016800084F844700020E4E70148006808F0BCBF1B
:1016900008000010F8B5044690F84500012839D03C
:1016A000012584F84550022084F844002068002673
:1016B000016841F008010160206800680090284638
:1016C000FFF7FCF92168009808602068016841F084
:1016D000040101602068006800900120FFF7EEF926
:1016E0002168009808602046FFF7F8F9206800F5A7
:1016F0008050816941F400518161206800F580507B
:10170000816941F00201816184F8445084F84560A8
:101710000020F8BD0220F8BDF8B5044690F8450059
:10172000012839D0012584F84550022084F844006E
:10173000206800F58050816921F4005181612068A2
:1017400000F58050816921F0020181612068002646
:10175000016821F004010160206800680090012008
:10176000FFF7ACF92168009808602046FFF7B6F94A
:101770002068016821F0080101602068006800907D
:101780000120FFF79BF921680098086084F8445015
:1017900084F845600020F8BD0220F8BDF0B590F84F
:1017A00045200023012A11D0012780F8457002222C
:1017B00080F84420002459B1C66A3268002A0ADA47
:1017C000122100F8441F44700120F0BD0220F0BD3A
:1017D00000F8447FF7E740F2F455A9420BD9B1FB7A
:1017E000F5FCB1FBF5F205FB1C1CBCF1000F00D0B1
:1017F000521C012A43D1326842F040523260C26A20
:10180000C1F30C015160C16A0A6842F000420A60EB
:10181000C16AC968C16234E0D6F800C02CF0405CEF
:10182000C6F800C033B9C66AD6F800C04CF0805C78
:10183000C6F800C0C66A7560561EB34214D1C66AA7
:10184000D6F800C04CF0005CC6F800C0C2F101063A
:10185000C6EBC61606EB4606D0F82CC001EB860692
:10186000C6F30C06CCF80460C66AD6F800C04CF08B
:10187000004CC6F800C0C66A5B1CF668C66293429C
:10188000CAD3016801F580514A69520705D504227F
:101890004A61016801F580514C6000F8447F447052
:1018A0000020F0BD704700002DE9F041044690F89B
:1018B000440042281ED0422084F84400236818695E
:1018C0004FF6FF7600F01C05208A06EAC020284368
:1018D0004FF4F86505EA8111014390B241F0030528
:1018E00058612068056100F0FDF8064601274FF4B5
:1018F000803810E00220BDE8F08100BF00F0F2F86F
:10190000801B404505D304F8447F0020607003200D
:10191000F1E720680569E807F0D184F84470EAE748
:101920002DE9F84F00224FF0010803254FF00F0E6C
:101930000B6808FA02F42340A3426ED14E68012ED0
:1019400005D0022E03D0112E01D0122E12D186689E
:101950004FEA420C05FA0CF7BE43CF6807FA0CF7C2
:10196000374387604668A6430C79C4F3001494405B
:1019700034434460C668570005FA07FC8C6826EAC1
:101980000C06BC403443C4604C68022C01D0122CBD
:1019900013D1D40800EB8404A346D4F82090540754
:1019A0004FEAD46A0EFA0AF629EA06090E6906FA1F
:1019B0000AF646EA0906CBF8206006680C7926EAA2
:1019C0000C0604F00304BC40344304604C68E4009B
:1019D00065D5364C266846F480462660246822F099
:1019E000030604F480440094314C3444A446D4F8F3
:1019F00008489607370F0EFA07F6B4432D4EB0424B
:101A000001D1002624E02C4EB04201D101261FE076
:101A10002A4EB04202D102261AE040E0284EB042DF
:101A200001D1032614E0274EB04201D104260FE075
:101A3000254EB04201D105260AE0244EB04201D124
:101A4000062605E0224EB04201D1072600E0082616
:101A5000BE402643CCF808681E4E34684F689C434D
:101A6000FF0300D51C4334601A4C241D26684F68C0
:101A70009E43BF0300D51E432660164E08363468C9
:101A80004F689C43FF0200D51C433460114E0C3656
:101A900034684F689C43BF0200D51C433460521C1D
:101AA000102AFFF445AFBDE8F88F0000443802402B
:101AB00000300140000002400004024000080240E3
:101AC000000C0240001002400014024000180240C6
:101AD000001C0240003C01400AB1816170470904CA
:101AE000FBE700000148806870470000B04000201C
:101AF000024881680278114481607047B04000203C
:101B00000B4810B5016841F400710160016841F4AF
:101B100080610160016841F480710160032000F080
:101B20008DF8002000F006F800F03EF8002010BD0F
:101B3000003C024010B5014688B00022192000F098
:101B40005DF8192000F04CF813480024016841F0BA
:101B500001010160006805A900F0010006906846D7
:101B600000F018F900F03CF90C494000B0FBF1F12D
:101B70000C480B4A491E026040F2E732C0E90324D8
:101B8000C0E9011400F084FB10B1012008B010BDC1
:101B9000044800F099FBF9E74438024040420F0046
:101BA00000000140A84100200C4882B0016841F4C7
:101BB00080410160006800F4804000900748001FE9
:101BC000016841F0805101600068002200F08050FF
:101BD00000900F21901E02B000F010B8443802406F
:101BE000002809DB00F01F0201219140400980001C
:101BF00000F1E020C0F8001170470000F0B40E4B77
:101C00001B680C46C3F30223C3F10705042D00D95A
:101C10000425191D072901D2002300E0DB1E01263F
:101C200006FA05F1491E214099409E40761E164055
:101C30003143F0BC00F05ABE0CED00E0064900F064
:101C4000070208684FF6FF03184040EA0220034AE3
:101C500010430860704700000CED00E00000FA053A
:101C60002DE9F0470E46050065D0DFF81481D8F85D
:101C70000000F7B200F00F00B04207D288F8007001
:101C8000D8F8000000F00F00B04254D128683D4C55
:101C9000810712D5400703D5206840F4E05020604A
:101CA0002878000703D5206840F460402060206851
:101CB000A96820F0F000084320602878C0072DD0E4
:101CC000304968680839012812D0022813D0032847
:101CD00011D00968890700292DDA216821F0030154
:101CE00001432160FFF7FEFE814641F2883A0EE093
:101CF00009688903EFE709688901ECE7FFF7F2FE5D
:101D0000A0EB0901514502D90320BDE8F087206806
:101D1000696800F00C00B0EB810FEFD1D8F800102B
:101D2000404601F00F01B14207D90770006800F08A
:101D30000F00B04201D00120E7E72878400705D521
:101D40002068E96820F4E050084320602878000704
:101D500006D52068296920F4604040EAC10020606F
:101D600000F04EF82168084AC1F30311515CC840E5
:101D70000649086006480068FFF7DCFE0020C4E75B
:101D8000003C024008380240644A0108BC40002080
:101D9000B44000200F2202600C4A136803F00303D2
:101DA0004360136803F0F0038360136803F4E053A7
:101DB000C36012684FF4E05303EAD20202610448A0
:101DC000006800F00F00086070470000083802400B
:101DD000003C02400148006870470000BC40002001
:101DE0000448054900680968044AC1F34231515C5E
:101DF000C8407047BC40002008380240744A0108BF
:101E0000154810B5006810F00C02144813D04110AA
:101E1000042A0FD0082A0ED10F4C241F22682368F1
:101E200002F03F025B0207D52068C0F38810A0FBD8
:101E3000010106E0084610BD2168C1F38811A1FB2D
:101E400000010023FEF71CFA2168C1F30141491C7F
:101E50004900B0FBF1F010BD083802400024F40046
:101E60002DE9F84F04006ED02078DFF83C93C007CE
:101E7000A9F104054AD009F104000168C1F3810108
:101E8000012908D00068C0F3810002280AD1D9F8DE
:101E90000000400206D52868800337D56068002816
:101EA000E1D033E06068B0F5803F10D0B0F5A02FEE
:101EB000286810D020F480302860286820F4802022
:101EC00028606068A8B1FFF70DFE06460DE028689F
:101ED00040F48030F4E740F480202860F7E700BF4A
:101EE000FFF700FE801B642873D828688003F7D5AD
:101EF0000CE0FFF7F7FD064605E000BFFFF7F2FD37
:101F0000801B6428F0D828688003F7D42078DFF895
:101F10009C8280074FF0000A3ED5A348001D01684F
:101F200011F00C0F08D00068C0F3810002280BD11B
:101F3000D9F80000400207D42868800716D5E06869
:101F4000012800D112E02BE1E068B8B10120C8F807
:101F50000000FFF7C7FD064605E000BFFFF7C2FD22
:101F6000801B0228C0D828688007F7D52868216917
:101F700020F0F80040EAC10028600DE0C8F800A099
:101F8000FFF7B0FD064604E0FFF7ACFD801B02281A
:101F90001FD828688007F7D42078000722D5824E02
:101FA00083486169703671B101210160FFF79AFDC4
:101FB000074604E0FFF796FDC01B022809D83068E9
:101FC0008007F7D50EE0C0F800A0FFF78BFD0746AD
:101FD00005E082E0FFF786FDC01B02287DD830684F
:101FE0008007F7D42078400768D5DFF8BCB1002718
:101FF0000BF13C0BDBF80000C0000BD4DBF8001049
:1020000041F08051CBF80010DBF80000012700F010
:1020100080500090674E3068C00510D4306840F49E
:1020200080703060FFF75EFD009005E0FFF75AFD1D
:102030000099401A022850D83068C005F6D55A4E8B
:10204000A0686C3601280FD00528306810D020F029
:1020500001003060306820F004003060A068B8B142
:10206000FFF740FD00900FE0306840F00100F4E71A
:1020700040F004003060F7E7FFF734FD0099411AA3
:1020800041F28830814266D830688007F4D50EE08E
:10209000FFF728FD009007E0FFF724FD0099411AA3
:1020A00041F28830814256D830688007F4D42FB18D
:1020B000DBF8001021F08051CBF80010A069C8B304
:1020C0003949091D0968C1F3810102294AD0022852
:1020D000504607D0C8F8600000E03CE0FFF702FD82
:1020E00004463BE04746C8F86000FFF7FBFC0646A5
:1020F00005E000BFFFF7F6FC801B02282BD82868FC
:102100008001F7D4D4E907010843A16A2A4A4908A3
:1021100002EB0141626A41EA8211084394F82C10F3
:1021200040EA0161C9F8001001203866FFF7DAFCC7
:10213000044606E036E000BFFFF7D4FC001B02288F
:1021400009D828688001F7D52CE000BFFFF7CAFC4A
:10215000001B022802D90320BDE8F88F28688001FF
:10216000F4D41FE00128F7D0D9F80000E26900F4A8
:102170008001914214D1226A00F03F0191420FD1B7
:1021800047F6C071626A0140914209D1A26A00F427
:102190004031914204D1E16A00F07060884201D080
:1021A0000120D9E70020D7E7043802400000474269
:1021B000800E4742007000400000FFFF2DE9F0470D
:1021C0000446007900278A4601280ED00125257192
:1021D00060794FF00009012809D00420A060012790
:1021E00084F804903846BDE8F0870220FBE74FF002
:1021F000020884F80580FFF775FC06460CE000BF76
:10220000FFF770FC801B022806D96571C4F80880AE
:1022100084F804900120E6E720684068C043C007C6
:10222000EED120688068E060CAF800006571D7E7E9
:1022300070B5040003D06079002510B105E00120DD
:1022400070BD2571204600F00DF8022060712068F5
:10225000016841F00401016001206071A560002067
:1022600070BD000008B500680649884208D10648DC
:10227000016841F040010160006800F040000090FA
:1022800008BD00000008065034380240704770470F
:1022900010B5040003D094F83D0010B107E0012010
:1022A00010BD002084F83C00204600F00CF802200D
:1022B00084F83D00211D206800F08EFA012084F88A
:1022C0003D00002010BD70470168CA6842F001025D
:1022D000CA600068816801F00701062903D001681F
:1022E00041F00101016000207047704770B504465D
:1022F000006801694FF00005C943890715D4C1681A
:10230000C943890711D4E91E0161012020772068A3
:1023100080698007204602D0FFF7E7FF04E000F065
:1023200098F8204600F096F8257720680169C9439F
:10233000490717D4C168C943490713D46FF0040192
:102340000161022020772068806910F4407F2046D8
:1023500002D0FFF7CAFF04E000F07BF8204600F04F
:1023600079F8257720680169C943090716D4C1683F
:10237000C943090712D46FF00801016104202077D6
:102380002068C0698007204602D0FFF7AEFF04E056
:1023900000F05FF8204600F05DF8257720680169BD
:1023A000C943C90617D4C168C943C90613D46FF01D
:1023B00010010161082020772068C06910F4407F77
:1023C000204602D0FFF791FF04E000F042F82046DB
:1023D00000F040F8257720680169C943C90708D192
:1023E000C168C943C90704D1891E0161204600F0B4
:1023F00033F820680169C943090609D4C168C94393
:10240000090605D46FF0800101612046FFF73EFF09
:1024100020680169C943490609D4C168C94349060E
:1024200005D46FF040010161204600F01FF82068DC
:102430000169C94389060BD4C168C943890607D419
:102440006FF0200101612046BDE87040FFF71FBF1B
:1024500070BD70477047000000680349884201D191
:10246000FFF746BB70470000000001407047FEE7E1
:1024700007490968C9070AD0054980390968C907A9
:1024800005D04FF060410A68002AFCD00870704700
:10249000800E00E0104810B50E4901600621416031
:1024A00000214FF420228160C0E903124FF4801212
:1024B00042610176012242768176C17601774277C8
:1024C000FEF7BCFC002803D0BDE81040FEF7B6BB09
:1024D00010BD000000640040180B001010B58EB055
:1024E0001C220B496846FDF713FF0021684608F0DF
:1024F000E5F8084C06491C2220601C3107A8FDF7AE
:1025000007FF002107A808F0D9F860600EB010BDE1
:10251000F44901080000001070B586B01421684627
:10252000FDF71DFF1E480024016841F08001016095
:10253000016801F080010591016841F0040101602A
:10254000016801F004010591016841F00101016099
:10255000016801F001010591016841F0020101608B
:10256000016801F002010591016841F00801016074
:1025700000680C4E00F008004FF4805505900022D2
:1025800029463046FFF7A8FA01200095CDE901045D
:10259000694630460394FFF7C3F906B070BD0000EA
:1025A00030380240000C0240F0B5444D8DB0C020E0
:1025B0002870A82068700024AC700720E8702E1DD9
:1025C000FF2030707070B070371DF4703C707C70FC
:1025D000BC70FC70214620460FF058FF2868E9784F
:1025E00003BA0A0603F47F4342EA032203BA00BA9D
:1025F00003F47F03084342EA1322A5F10C0142EAE7
:10260000106008603068F17803BA0A0603F47F436B
:1026100042EA032203BA00BA03F47F03084342EA02
:102620001322A5F1080142EA106008603868F978C1
:1026300003BA0A0603F47F4342EA032203BA03F40F
:102640007F0300BA42EA1322084342EA1060291FBE
:102650002B1F08601A481B490094CDE901101A1F6E
:10266000111F194807F0FCFA174807F013FD164D23
:1026700095F82D004007284602D507F01FFE01E01F
:1026800007F00EFD1149104807F05EFD0A94012184
:102690000AA80B9407F084FF08491C22103908602F
:1026A0001C31C1E900500A4903A8FDF731FE034976
:1026B00003A80C3108F002F80DB0F0BD1C000010AA
:1026C0005D2601083D480008687300206149000844
:1026D000484A010870470000074910B505480860DE
:1026E0000846FFF7A5FD002803D0BDE81040FEF71F
:1026F000A5BA10BD0008065098410020FEE77047BB
:1027000010B5502080F31188BFF34F8FBFF36F8F48
:1027100011F0DAFF18B104494FF080500860002032
:1027200080F3118810BD000004ED00E030B593B0D7
:1027300030216846FDF713FE14210CA8FDF70FFEAB
:1027400019480025016841F080510160006800F0DF
:10275000805011901548016841F480410160006883
:10276000022400F4804011900120009000040190A8
:102770008001CDE9064004200890A820CDE9090495
:1027800007200B906846FFF76BFB0CA90F2081E830
:1027900031004FF4A0500F90E002109005210CA8DA
:1027A000FFF75EFA13B030BD4038024000700040C1
:1027B0000548016841F47001016003494FF0006071
:1027C000803908607047000088ED00E00148FFF79D
:1027D0008DBD0000A8410020F0B50268254C264DB3
:1027E000264E274F274B4FF0804CA04209D0604522
:1027F00007D0A84205D0B04203D0B84201D09842D9
:1028000004D122F0700E4A6842EA0E02A0421BD0A8
:10281000604519D0A84217D0B04215D0B84213D0A5
:10282000984211D0184DA8420ED0184DA8420BD096
:10283000174DA84208D0174DA84205D0164DA84202
:1028400002D0164DA84203D122F44075CA682A432B
:102850004D6922F080022A4302608A68C2620A68D7
:102860008262A04201D0984201D10969016301212D
:102870004161F0BD0000014000040040000800403C
:10288000000C0040000401400040014000440140B1
:102890000048014000180040001C0040002000409B
:1028A000FEE700000FB4054B10B503A9044A0298D7
:1028B00000F002F910BC5DF814FB0000114A00089A
:1028C000A40000100FB4084B10B504A902AA039885
:1028D00000F0F2F8044602A9002000F084FC204633
:1028E00010BC5DF814FB0000E73100080907090E71
:1028F000002804DB00F1E02080F80014704700F0AD
:102900000F0000F1E02080F8141D70470048704768
:102910009441002002E008C8121F08C1002AFAD121
:1029200070477047002001E001C1121F002AFBD14F
:10293000704700002DE9FF5F82B00021DDE904301F
:10294000020DDDF840B0034318D044F61050A2F257
:10295000FF3242431514119801281FD0A5EB0B003C
:10296000401C5FEA000A4FF000064E4FDFF8389136
:10297000B046504615D5CAF1000413E01198012461
:102980004AA3012801D16FEA0B010298119AC0E90C
:102990000031C0E9024206B0BDE8F09FCBF1000073
:1029A000DFE704460021404A491842EB0450CDE9D4
:1029B000001012E0E00707D032463B464046494649
:1029C000FDF7A6FE8046894632463B46104619462C
:1029D000FDF79EFE06460F466410002CEAD1DDE9A5
:1029E0000401DDE90023BAF1000F06DAFDF790FEDD
:1029F00042464B46FDF78CFE05E0FDF7FBFE4246E6
:102A00004B46FDF7F7FE04460E460022284BFDF725
:102A100079FF03D84FF0FF30014607E00022254B35
:102A200020463146FDF7CDFDFDF753FF102409E0A8
:102A3000002C0ADB0A220023FDF722FC039B303224
:102A40001A55641E50EA0102F2D1641C039AC4F1C3
:102A500011031444119A012A03D0012208430DD115
:102A60000AE0084304D000204FF0110B119072E7E8
:102A7000A3EB0B056D1E0DE05B4504DD4FF000027E
:102A800005F1010504E003DA4FF00002A5F10105AC
:102A9000002AECD002981199C0E90231C0E9004542
:102AA00079E70000000014400000F03F3000000013
:102AB0000000F0430000E03F2DE9FF4F95B09B463A
:102AC0008946064600250FE2252877D100242746AF
:102AD000F84A0121059400E0044316F8013F203B29
:102AE00001FA03F01042F7D130782A2811D06FF0A4
:102AF0002F033078A0F13002092A16D8059A44F045
:102B0000020402EB820203EB42021044761C0590A1
:102B1000EFE759F8042B0592002A03DA504244F4F7
:102B20000054059044F00204761C30782E2816D10B
:102B300016F8010F44F004042A280DD06FF02F027C
:102B40003078A0F13003092B09D807EB870302EB9B
:102B50004303C718761CF3E759F8047B761C3078DA
:102B60006C280FD006DC4C2817D068280DD06A28B6
:102B700014D104E0742810D07A280FD10DE044F469
:102B800000140AE044F4801401E044F44014727824
:102B9000824202D104F58014761C761C30786628B7
:102BA0000BD013DC582877D009DC002875D04528D5
:102BB000F6D04628F4D047281AD19DE118E06328C2
:102BC00035D0642879D0652812D195E1702873D06A
:102BD00008DC6728F1D069286FD06E280DD06F28E7
:102BE00006D1B5E073282CD0752875D0782874D01C
:102BF0005A46179990476D1C75E1C4F3025002289C
:102C000009D003280DD0D9F8001004280DD00D608C
:102C100009F1040967E1D9F80010EA17C1E9005287
:102C2000F6E7D9F800100D80F2E70D70F0E719F81B
:102C3000041B8DF8001000208DF80100EA460120E9
:102C400003E059F804AB4FF0FF3061074FF000018B
:102C500002D40DE008F101018846B9420FDA80453F
:102C6000F8DB1AF808100029F4D108E008F1010196
:102C700088468142FADB1AF808100029F6D1059837
:102C80005B46A0EB080721463846179A00F094FAF5
:102C9000284400EB080507E04DE029E10DE01AF8B3
:102CA000010B5A4617999047B8F10108F7D25B46D5
:102CB00021463846179A13E142E00A220092C4F3F3
:102CC00002524FF0000A022A08D059F804CB032A16
:102CD0004FEAEC710AD00DE029E02AE009F1070182
:102CE00021F00702F2E802C1914609E00FFA8CFCDC
:102CF0004FEAEC71042A03D14FFA8CFC4FEAEC71D5
:102D0000002907DA0A460021DCF1000C61EB020120
:102D10002D2202E0220504D52B228DF80420012269
:102D200003E0E20701D02022F7E7904659E00A21AC
:102D300002E010220DE010214FF0000A00910BE09C
:102D400010224FF0000A44F004040827009203E028
:102D500008224FF0000A0092C4F30252022A05D062
:102D600059F804CB0021032A08D009E009F1070132
:102D700021F00702F2E802C1914605E01FFA8CFC3F
:102D8000042A01D10CF0FF0C4FF00008220728D5CF
:102D9000702806D0009B83F0100353EA0A0305D085
:102DA0000EE040228DF80420012208E05CEA0102D6
:102DB00006D030228DF804208DF8050002229046BE
:102DC000009B83F0080353EA0A030AD15CEA01027C
:102DD00001D1620705D530228DF804204FF001089B
:102DE0007F1E582804D034A003900EA802900DE056
:102DF00036A0F9E753466046009AFDF741FA84464B
:102E00000398825C0298401E029002705CEA010006
:102E1000F0D1029806A9081A00F1200A600702D52D
:102E200024F4803400E00127574502DDA7EB0A00B7
:102E300000E0002000EB0A01009005984144401A90
:102E40000590E00306D45B462146179A059800F0EA
:102E5000B3F90544002706E001A85A46C05D17995A
:102E600090476D1C7F1C4745F6DBE0030CD55B46A5
:102E70002146179A059800F09FF9054404E0302098
:102E80005A46179990476D1C0099481E00900029DA
:102E9000F5DC08E0029802995A460078491C029134
:102EA000179990476D1CBAF10001AAF1010AF1DCF3
:102EB00065E10000092801003031323334353637FE
:102EC0003839616263646566000000003031323376
:102ED0003435363738394142434445460000000016
:102EE00000F058F90544761C307800287FF4ECADEA
:102EF00019B02846BDE8F08F620700D4062709F113
:102F0000070222F0070CFCE80223E14603F0004828
:102F10005FEA080C02D00FF2702C0DE05FEA045C4F
:102F200002D50FF2682C07E05FEAC47C02D00FF2F2
:102F3000602C01E0AFF2700C4FF0FF3823F000433B
:102F4000CDF850C065280CD006DC452809D04628AD
:102F50001DD047283DD13DE0662818D067287ED196
:102F600038E00021112F01DB112000E0781CCDE9B1
:102F7000000106A90EA8FFF7DDFCDDE90F010E9A9E
:102F800003910021009207F1010A04914DE04FF0F6
:102F900000400097CDE9011006A90EA8FFF7CAFC72
:102FA000DDE90F0203920E9B11990022DDF80CA0BF
:102FB0000093049211B9791C00EB010AB7EB0A00E7
:102FC00004D4C0F1FF3007F1010A0490AAEB070016
:102FD000019044E0012F00DA01270021112F01DDCB
:102FE000112000E03846CDE9000106A90EA8FFF740
:102FF000A1FCDDE90F010E9A0391002104910092DA
:10300000BA4621070CD40399514500DA8A46BAF131
:10301000010F05DD009AAAF10101515C302908D0A9
:10302000B84202DA10F1040F06DA0121CDE90110ED
:1030300015E0AAF10101E9E7002805DC0499014443
:103040000491AAEB000102E0411C514500DD8A46D3
:103050000499401A401C01904FF000400290200754
:1030600004D40198504501DBCDF8048000208DF890
:103070004F0002980DF14F07B0F1004F25D02B20E3
:103080000E9002984FF0020800280CDA404202909D
:103090002D200E9007E00A210298FDF70EFA30313C
:1030A000029007F8011DB8F10001A8F10108F2DC57
:1030B00002980028EFD1791E0E980870307800F041
:1030C000200040F0450007F8020D12A8C01B00F1D7
:1030D00007081498007800B1012000EB0A0101985C
:1030E00001EBE07105984144401A401E0590E00351
:1030F00006D45B462146179A059800F05DF8054412
:103100001498007818B15A46179990476D1CE0033F
:1031100024D55B462146179A059800F04DF80544E2
:103120001CE00498002807DBDDE90301884203DD89
:103130000098405C179901E0179930205A46904753
:10314000049805F10105401C04900198401E01906F
:1031500004D12E205A46179990476D1CBAF10001F0
:10316000AAF1010ADDDC05E017F8010B5A461799B0
:1031700090476D1CB8F10001A8F10108F4DC5B4632
:103180002146179A0598ABE62D0000002B000000A1
:10319000200000002DE9F041044600251E46174698
:1031A000880404D405E039462020B0476D1C641E15
:1031B000F9D52846BDE8F0812DE9F0410446002507
:1031C0001E469046C80301D5302700E0202788041A
:1031D00004D505E041463846B0476D1C641EF9D55C
:1031E0002846BDE8F0810A68531C0B6010707047D8
:1031F0002DE9F04790460E4604006FF0050555D0C6
:1032000004F11400814609F0E8F900284ED0EF1FC0
:10321000002E3DD0B8F1000F06D032A340F22A2292
:103220003DA147A0FFF73EFB2078616A05F0B8FE9C
:1032300005004FF0FF383DD06E6009F0EFF82946E9
:10324000484609F0C0F9A0B36C680021204609F097
:10325000E3FC002120460DF039F9002120460DF055
:1032600075FE0022114620460CF064F9002120462C
:103270000AF052F90020686005F11000044609F0D8
:103280007FF9204609F09CF9284606F03BF81FE03C
:10329000384603F0C3FD0146484609F094F928B9C1
:1032A000636A1BB100221146204698472846BDE8B4
:1032B000F0870FE0384603F0B1FD0146484609F0BB
:1032C00082F928B9636A1BB100221146204698474B
:1032D0004046ECE7636A1BB100221146204698473E
:1032E0000020E4E72E2E2F4D6964646C65776172CF
:1032F00065732F54686972645F50617274792F4CE2
:103300007749502F7372632F6170692F6170695F05
:103310006D73672E63000000657870656374206EBE
:103320006577706362203D3D204E554C4C206F7296
:1033300020657272203D3D204552525F4F4B000088
:10334000417373657274696F6E2022257322206643
:1033500061696C6564206174206C696E6520256408
:1033600020696E2025730A007CB5044600254021A3
:103370001A480195FCF7F3FF184816214030FCF776
:10338000EEFF164840215630FCF7E9FF204614A115
:10339000FCF7FCFF040005D013340D212046FDF797
:1033A00013F8051B21462A460C48FDF701F811A128
:1033B0000A48FCF7DFFF094A3C214032074804F085
:1033C0009DFF064B14204033009001AA402103F1D9
:1033D000160003F0E5FD014856307CBDE8410020B1
:1033E0005365632D576562536F636B65742D4B6531
:1033F000793A200032353845414641352D4539313D
:10340000342D343744412D393543412D4335414224
:1034100030444338354231310000000001004FF0A4
:1034200000000AD0C97A4A1C022A06D2034A02EBDB
:1034300081014968002900D001207047184100200F
:103440002DE9F35FDFF88880064600EB0611A8F54A
:103450008869002509EB0114AA4604F1100B00BF8E
:1034600005EB4507404658F8273053B100EB87017C
:103470000A7AB24205D14A6858460199984748F8F5
:1034800027A06D1CEDB2042DEAD300210425484687
:10349000B1420DD001EB011200EB0212937A022B24
:1034A00006D1D27BE37B9A4202D1E573BDE8FC9F53
:1034B000491CC9B20429EBD3E07B0428F6D2054E9F
:1034C00056F820000FF010FDE17B46F821A0ECE754
:1034D000D00F0010800B00102DE9F0410746324E4E
:1034E00000EB071006EB0014042F06D32FA340F2C5
:1034F0001C423AA140A0FFF7D5F9A07A002850D08D
:1035000000254FF0010801280CD0022821D0032803
:1035100041D0BDE8F04125A340F25B4240A136A076
:10352000FFF7C0B9FCF7E2FE81B2002000EB001209
:1035300006EB0212937A022B02D112898A42F1D051
:10354000401CC0B20428F1D321810220A072E57290
:1035500018E0207B401E10F0FF00207321D1607B1B
:10356000401CC0B26073042805D020733846BDE803
:10357000F04100F067B82046FFF750FF30B1E07A25
:10358000401CE07284F80C806573EFE70021384638
:10359000FFF756FF04E0206810B1401E206000D104
:1035A000A572BDE8F0810000900B00102E2E2F4D6B
:1035B0006964646C6577617265732F5468697264BD
:1035C0005F50617274792F4C7749502F7372632F5B
:1035D000636F72652F646E732E6300006172726197
:1035E0007920696E646578206F7574206F6620623B
:1035F0006F756E6473000000417373657274696F58
:103600006E2022257322206661696C6564206174D6
:10361000206C696E6520256420696E2025730A0080
:10362000756E6B6E6F776E20646E735F7461626C23
:103630006520656E7472792073746174653A000058
:10364000704700002DE9FF5F04464A4900EB041073
:1036500001EB0015E87A022806D347A340F2FA22CC
:1036600051A157A0FFF71EF9E97A5F48002650F8EC
:10367000210040B305F110000446FCF7AFFE123004
:1036800081B24FF42072362007F0A6F85FEA000AF4
:1036900065D0009601960296288902F0D7FDADF814
:1036A000000001208DF802004FF4807BADF804B0DB
:1036B0000C226946504607F0F7FE0C26641E641C77
:1036C000274600220BE000212046FFF7B9FEAE722C
:1036D000002004B0BDE8F09F521CD2B2641C2078D8
:1036E0002E2801D00028F7D1E01B1FFA80F9B0186E
:1036F00000F10108B8F5803F35D23146504607F059
:1037000065FD761CB3B24A463946504607F088FF3D
:1037100020781FFA88F60028D1D100223146504681
:1037200007F054FD761CADF80CB0B3B2ADF80EB096
:10373000042203A9504607F073FFEA7A2A49E87B7E
:1037400001EB82020B493523103951F82000514614
:103750000FF022FC0446504607F054FC01E04FF005
:10376000FF342046B5E7504607F04CFC6FF00500EB
:10377000AFE70000900B00102E2E2F4D6964646C93
:103780006577617265732F54686972645F50617206
:1037900074792F4C7749502F7372632F636F726562
:1037A0002F646E732E630000646E732073657276EF
:1037B0006572206F7574206F662061727261790086
:1037C000417373657274696F6E20222573222066BF
:1037D00061696C6564206174206C696E6520256484
:1037E00020696E2025730A001841002010B50024BE
:1037F0002046FFF771FE641CE4B2042CF8D310BD20
:1038000070B505460C46880706D009A34FF4B6727A
:1038100013A11BA0FFF746F808F056FEA968096837
:103820002160A9680C60BDE8704008F075BE00001A
:103830002E2E2F4D6964646C6577617265732F5409
:10384000686972645F50617274792F4C7749502FA8
:103850007372632F636F72652F6D656D702E6300D9
:103860006D656D705F667265653A206D656D20707F
:10387000726F7065726C7920616C69676E65640047
:10388000417373657274696F6E20222573222066FE
:1038900061696C6564206174206C696E65202564C3
:1038A00020696E2025730A0070B5044608F00CFEEE
:1038B0000546A0680468002C0FD021680160A007AD
:1038C00006D008A34FF48C7212A11BA0FEF7EAFFEA
:1038D000284608F021FE204670BD284608F01CFE50
:1038E000002070BD2E2E2F4D6964646C6577617267
:1038F00065732F54686972645F50617274792F4CDC
:103900007749502F7372632F636F72652F6D656DEA
:10391000702E63006D656D705F6D616C6C6F633AE6
:10392000206D656D702070726F7065726C792061AA
:103930006C69676E65640000417373657274696FCA
:103940006E2022257322206661696C656420617493
:10395000206C696E6520256420696E2025730A003D
:103960002DE9F0470F46040006D13FA34FF4DC7267
:103970004AA14EA0FEF796FF08F0A6FD002666605D
:103980002772217F41F0010121776578667008F088
:10399000C3FD636A7BB10022042120469847636A15
:1039A0004BB10022114620469847636A1BB10022A2
:1039B000022120469847384603F030FA804604F149
:1039C0001000814608F009FE18B14146484608F04B
:1039D000FAFD04F11400814608F0FFFD18B14146DC
:1039E000484608F0F0FD012D0FD0042D0DD0032D19
:1039F0000BD0206A002834D0BDE8F0471AA340F26B
:103A0000F71234A129A0FEF74DBF217FC1F380003A
:103A100001F0FB012177002823D1206A30B912A3DD
:103A20004FF4F37232A121A0FEF73CFF206A042D6F
:103A300008D00771206A05680C35284608F00AFE90
:103A400010B108E00671F5E707A340F2EF122FA1CD
:103A500016A0FEF727FF28462662BDE8F04708F0CB
:103A6000F6BDBDE8F08700002E2E2F4D6964646C12
:103A70006577617265732F54686972645F50617213
:103A800074792F4C7749502F7372632F6170692FAF
:103A90006170695F6D73672E63000000636F6E6E07
:103AA00020213D204E554C4C0000000041737365B1
:103AB0007274696F6E2022257322206661696C65BD
:103AC00064206174206C696E6520256420696E2015
:103AD00025730A00636F6E6E2D3E63757272656E9C
:103AE000745F6D7367203D3D204E554C4C000000C7
:103AF000636F6E6E2D3E63757272656E745F6D736B
:103B00006720213D204E554C4C000000696E6176C7
:103B10006C6964206F705F636F6D706C6574656451
:103B20005F73656D0000000070B5094D0646002406
:103B300004EB440005EBC000017D29B18068B04270
:103B400002D1204600F036F9641C0A2CF0DB70BD6F
:103B5000543A00102DE9F74F84B04FF00A0B0024BF
:103B60000646DA465F46D94602940194CDF80040F5
:103B7000514904EB440001EBC008039098F814503D
:103B80000A2F1DD0002D2AD0012D08D0022D06D2DB
:103B90004AA340F2231257A166A0FEF783FE9EB10E
:103BA0003168D8F8040081420ED1069820B1D8F8C7
:103BB00008100698814207D1204607B0BDE8F08F73
:103BC000002DE1D127460AE0012D16D0022D06D3A3
:103BD000B8F812000099884201D3A2460090641CF4
:103BE00024B20A2CC4DB059881074FF0FF30E4D4DF
:103BF0000A2F16D018DA3C463EE02F49039851F8B8
:103C000030000028B8F8120005D002998842E6D3A7
:103C1000A1460290E3E701998842E0D3A3460190D0
:103C2000DDE70599C907C8D05146BAF10A0F0EDA87
:103C30000C46214801EB440150F8310080B11FA32C
:103C400040F26D1245A13BA0FEF72CFE08E059465C
:103C5000BBF10A0F03DB4946B9F10A0FADDA0C4696
:103C60000A2C06DB15A340F27F1242A131A0FEF719
:103C700019FE204600F09EF80A2C06DB0FA340F246
:103C800083123CA12BA0FEF70DFE0B4804EB440170
:103C900000EBC105287D30B108A34FF4C2723AA1F0
:103CA00024A0FEF7FFFD0EB1306868600020688236
:103CB0000698A86080E70000543A00102E2E2F4D81
:103CC0006964646C6577617265732F5468697264A6
:103CD0005F50617274792F4C7749502F7372632F44
:103CE000636F72652F697076342F657468617270C6
:103CF0002E6300007374617465203D3D2045544877
:103D00004152505F53544154455F50454E44494ED3
:103D100047207C7C207374617465203E3D204554AF
:103D2000484152505F53544154455F535441424CB3
:103D300045000000417373657274696F6E2022251F
:103D40007322206661696C6564206174206C696E01
:103D50006520256420696E2025730A006172705FFA
:103D60007461626C655B695D2E71203D3D204E552E
:103D70004C4C000069203C204152505F5441424C61
:103D8000455F53495A4500006172705F7461626C0F
:103D9000655B695D2E7374617465203D3D204554FB
:103DA000484152505F53544154455F454D5054591A
:103DB0000000000070B5074C00EB4005002654F8E9
:103DC000350018B107F01EF944F8356004EBC50062
:103DD000067570BD543A00102DE9F04385B00D0012
:103DE000074609D07C684FF480782088404539D157
:103DF0002079062836D109E01CA340F28A2229A1A5
:103E00002CA0FEF74FFD05B0BDE8F08360790428D3
:103E100028D16088082825D1D4F80E000490A16923
:103E2000686820B1814202D10126334601E00026B4
:103E3000022304F10802914604A9284600F0A2FBDF
:103E4000E08840450ED16EB1022204ABCDE90232CA
:103E5000291DCDE9001905F1260319464A462846D1
:103E600000F090FA384607F0CDF8CCE72E2E2F4D13
:103E70006964646C6577617265732F5468697264F4
:103E80005F50617274792F4C7749502F7372632F92
:103E9000636F72652F697076342F65746861727014
:103EA0002E6300006E6574696620213D204E554CDE
:103EB0004C000000417373657274696F6E20222597
:103EC0007322206661696C6564206174206C696E80
:103ED0006520256420696E2025730A00FEB515460D
:103EE0000E46040006D143A340F21E324FA153A058
:103EF000FEF7D8FC36B93FA340F21F3259A14FA0BC
:103F0000FEF7D0FC35B93BA34FF4487258A14BA043
:103F1000FEF7C8FC2146286801F098F808B1584B14
:103F20003FE02868C0F303110E2925D0A16863681B
:103F300000EA01020B409A4208D080B2A0F57E410F
:103F4000A93903D0E068B0B304F10C054D4B4E48DD
:103F50001A7802EB420100EBC1010F7D022F2ED334
:103F60008F68A7422BD12F6849688F4227D13146ED
:103F7000204600F08BF8FEBD01208DF804000020E3
:103F80008DF805005E208DF80600687801AB00F022
:103F90007F008DF80700A8788DF80800E8788DF884
:103FA00009004FF40060009004F1260231462046DB
:103FB00000F0C8FBFEBDFFE76FF00300FAE7002248
:103FC00002EB420100EBC1010F7D022F08D38F6885
:103FD000A74205D12F6849688F4201D11A70C6E700
:103FE000521CD2B20A2AEBD332462946204600F0B0
:103FF000D5F8DFE72E2E2F4D6964646C657761720A
:1040000065732F54686972645F50617274792F4CC4
:104010007749502F7372632F636F72652F697076C3
:10402000342F6574686172702E6300006E65746968
:104030006620213D204E554C4C00000041737365B5
:104040007274696F6E2022257322206661696C6527
:1040500064206174206C696E6520256420696E207F
:1040600025730A007120213D204E554C4C00000064
:1040700069706164647220213D204E554C4C0000F3
:104080007C4A010888410020543A00102DE9F84389
:104090000646154688461C4802EB450100EBC10464
:1040A000207D022806D219A340F2EE2225A131A0DC
:1040B000FEF7F8FB144A05EB4501207D02EBC10534
:1040C0000C35022813D1608A0327B0F58E7F04D9FE
:1040D000211D304600F010FA07E0B0F5877F06D3C7
:1040E0002A46211D304600F00DFA00B927754FF41D
:1040F000006000902B4606F126024146304600F053
:1041000021FBBDE8F8830000543A00102E2E2F4DFD
:104110006964646C6577617265732F546869726451
:104120005F50617274792F4C7749502F7372632FEF
:10413000636F72652F697076342F65746861727071
:104140002E6300006172705F7461626C655B617206
:10415000705F6964785D2E7374617465203E3D20E4
:104160004554484152505F53544154455F53544164
:10417000424C4500417373657274696F6E2022254D
:104180007322206661696C6564206174206C696EBD
:104190006520256420696E2025730A002DE9FC5FE7
:1041A0008246263001900E46086814464FF0FF37CD
:1041B0004FF0000B514600F049FF80B93068C0F362
:1041C00003110E290BD056B148B152460121304699
:1041D000FFF7C0FC050005D540B2BDE8FC9F6FF0BD
:1041E0000F00FAE77F2D06D337A340F2C13244A176
:1041F00047A0FEF757FB05F0FF094F4909EB4908B7
:1042000001EBC805287D00280ED0012808D002281F
:1042100006D22DA340F2CD3248A13DA0FEF742FBCD
:10422000BBF1000F06D104E001202875C5F808A0F5
:1042300000E034B93146504600F05EF90746002CE4
:10424000CBD0287D3C4E02280ED346494FF4006067
:1042500005F10C0381F80090009021465046019A28
:1042600000F070FA07462DE001282BD1254640F2D8
:10427000F13768892989884207D1286828B112A3B3
:104280003A4639A122A0FEF70DFB287B400607D550
:1042900022464FF420710E2006F0EAFC044605E0A9
:1042A0002D68002DE5D1204607F03AF844B156F8C4
:1042B000380008B106F0A6FE46F83840002701E0B5
:1042C0004FF0FF37384688E72E2E2F4D6964646C17
:1042D0006577617265732F54686972645F506172AB
:1042E00074792F4C7749502F7372632F636F726507
:1042F0002F697076342F6574686172702E630000C8
:1043000074797065206F766572666C6F7700000057
:10431000417373657274696F6E2022257322206663
:1043200061696C6564206174206C696E6520256428
:1043300020696E2025730A00543A00106172705F84
:104340007461626C655B695D2E7374617465203D98
:104350003D2050454E44494E47206F7220535441F2
:10436000424C4500884100206E6F207061636B6590
:10437000742071756575657320616C6C6F77656409
:10438000210000002DE9FF4F81B09846DDE90FA91B
:10439000DDF838B006004FF0000706D12CA340F23C
:1043A000574239A13CA0FEF77DFA4FF420721C2140
:1043B0000E2006F011FA050046D068891C2806D2A6
:1043C00023A340F262423EA133A0FEF76BFA6C6871
:1043D000119801F03BFFE08096F82C00062806D0EB
:1043E0001BA340F2694243492BA0FEF75BFAD8F8C1
:1043F0000010A160B8F80400A081DAF80010C4F839
:104400001210BAF80400E082DBF80000C4F80E00D5
:10441000D9F80000A0614FF48070208008206080EF
:10442000062020710420607140F60600DDE90223B9
:1044300000902946304600F085F9284606F0E2FD56
:10444000384605B0BDE8F08F4FF0FF30F9E70000C7
:104450002E2E2F4D6964646C6577617265732F54DD
:10446000686972645F50617274792F4C7749502F7C
:104470007372632F636F72652F697076342F657462
:10448000686172702E6300006E6574696620213D5C
:10449000204E554C4C000000417373657274696F77
:1044A0006E2022257322206661696C656420617428
:1044B000206C696E6520256420696E2025730A00D2
:1044C000636865636B2074686174206669727374D5
:1044D00020706275662063616E20686F6C64207363
:1044E0007472756374206574686172705F68647259
:1044F00000000000104F0108014A00F003B800005E
:104500007C4A01087FB5064D031D0124CDE9003525
:10451000CDE9021422331946FFF734FF04B070BD11
:10452000824A010870B5164D002400BF04EB440018
:1045300005EBC002117DF1B1508A401C80B250825F
:10454000B0F5967F0AD2012906D003290AD00429A2
:104550000AD001290BD00EE0052808D32046FFF72A
:1045600029FC08E0042000E00220107503E0111D82
:104570009068FFF7C1FF641C0A2CD7DB70BD0000F8
:10458000543A0010F8B5044690F82C001F46164621
:104590000D46062806D020A340F2A9122CA135A072
:1045A000FEF780F99DB1286888B1214600F04EFDE4
:1045B00068B92878C0F303100E2808D0224639467F
:1045C0002846FFF7C7FA002804DA40B2F8BD6FF0BA
:1045D0000F00F8BD00EB40013048022300EBC102A0
:1045E000137594603368D360B388138200235382B9
:1045F00050F8315075B140F831304FF40060009000
:10460000334604F126022946204600F09BF828464E
:1046100006F0F8FC0020F8BD2E2E2F4D6964646C66
:104620006577617265732F54686972645F50617257
:1046300074792F4C7749502F7372632F636F7265B3
:104640002F697076342F6574686172702E63000074
:104650006E657469662D3E6877616464725F6C652F
:104660006E203D3D204554485F4857414444525FC9
:104670004C454E00417373657274696F6E2022253C
:104680007322206661696C6564206174206C696EB8
:104690006520256420696E2025730A00543A0010B5
:1046A0002DE9F041044640890E270D460E283CD9DD
:1046B000E07B18B995F83000401CE0736068017821
:1046C0008689CA0714D0012905D006221C49FBF7A8
:1046D0008CFE48B10CE0417851B980785E2807D152
:1046E000607B40F0100002E0607B40F008006073E7
:1046F000082E03D0B6F5C16F17D10DE095F82D0047
:10470000000712D53946204606F058FE68B92946FA
:10471000204600F0E3FD10E095F82D00000704D5D9
:104720003946204606F04AFE18B1204606F06AFCDB
:1047300003E029462046FFF74FFB0020BDE8F0814B
:104740007C4A01082DE9F04104461F4690460E467A
:10475000069801F07BFD05460E21304605F0D8FF96
:1047600018B16FF00100BDE8F0817068858139688B
:104770000160B9888180D8F80020C0F80620B8F818
:104780000410418194F82C00062806D006A34FF4AB
:10479000997213A11FA0FEF785F831462046A26941
:1047A000BDE8F041104700002E2E2F4D6964646C67
:1047B0006577617265732F54686972645F506172C6
:1047C00074792F4C7749502F7372632F6E6574691B
:1047D000662F65746865726E65742E630000000054
:1047E0006E657469662D3E6877616464725F6C659E
:1047F0006E206D757374206265203620666F72209E
:1048000065746865726E65745F6F75747075742118
:1048100000000000417373657274696F6E20222579
:104820007322206661696C6564206174206C696E16
:104830006520256420696E2025730A0010B50400E8
:1048400006D10BA340F22B2210A114A0FEF72AF8E8
:10485000732084F82E00742084F82F0019486061BA
:104860001948A061204601F089FB002010BD00001E
:104870002E2E2F4C5749502F5461726765742F6547
:10488000746865726E657469662E63006E6574691E
:104890006620213D204E554C4C000000417373654D
:1048A0007274696F6E2022257322206661696C65BF
:1048B00064206174206C696E6520256420696E2017
:1048C00025730A00DD3E000865610008104E0446AD
:1048D0004FF0FF373946306805F0BEFE0028F9D1A9
:1048E0000C4807F07FFE204601F0DCFB05000AD0F3
:1048F00022692146904710B1284606F083FB0548FF
:1049000007F084FEECE7034807F080FEE2E70000D2
:1049100008000010480000107047000008B5044669
:10492000002000906A4601210C48FCF76BFE0098BD
:1049300000F004000090216891F82D20520704D463
:1049400038B1084605F05AFC03E010B9084605F0F6
:10495000FFFBC82005F002FDE4E700002073002003
:104960002DE9FC41002506460195009590F82D00A3
:10497000400742D5254C606868B34FF4805200214F
:104980002046FCF791FFFDF7ADF84FF47A770190E0
:104990006A4601211D48FCF735FEFDF7A3F8019991
:1049A000401AB84217D800988006F1D56A461F21F0
:1049B0001648FCF727FE0098C10603D54FF40061A6
:1049C000E16000E0E560400701D5A5600DE04FF42F
:1049D0008040A06009E0E068A168C00840EA51009A
:1049E00082B200210948FCF75FFF00210748FCF76D
:1049F0000FFB0648FCF74EFE02E00448FCF78CFE75
:104A00003046FFF789FFBDE8FC81000020730020DD
:104A1000054A914202D0054A914201D1FDF728BDD5
:104A20004FF0FF3070470000A400001090410020BC
:104A30002DE9F04116460D46441C022212A1FBF757
:104A4000F5FC00B911A4A046002411E0A86804EB0D
:104A5000C40100EBC10739464046FBF797FC30B173
:104A6000786C30602868396C40180AD103E0641C07
:104A70006868A042EAD8084CA068FBF7AFFC306039
:104A8000A068BDE8F08100002F200000696E646519
:104A9000782E68746D6C00009C4000200268012133
:104AA000136843605B1E13F1020F02D2121D002136
:104AB000826008467047000088B00026D0F8089051
:104AC000DFF888A1044602960196ADF81060002038
:104AD0000EF050FF02A9606804F0EAFD00287DD1C5
:104AE00004AA01A9029804F02FF904F10C00BDF802
:104AF000102005460199FBF70BFC41F20C00204405
:104B000001954FF480510546FBF729FC2F210198B0
:104B1000FBF75AFC804605224DA103960198FBF74E
:104B200085FC30B106224CA10198FBF77FFCD0B187
:104B30007FE040464AA1FBF729FC68B149A128461D
:104B4000DAF80C20FDF7BEFE411944F2940050F84B
:104B50000920404690475DE003AA49464046FFF7DA
:104B600067FF05465AE040A10198FBF70FFC50B1E2
:104B70000A2200211030FBF768FC0746ADF81460EC
:104B800004F10C0B15E03046F7E76946606804F065
:104B90008FFD70B905AA06A9009804F0D5F806990A
:104BA00021B1BDF814205846FBF72CFC009804F006
:104BB00049F95846FBF712FCB842E6D32FA10198F9
:104BC000FBF7E4FB00B10830014644F298002A46A6
:104BD00050F8093040469847050000E02CE017D017
:104BE000DAF80C703846FBF7F9FB00EB05082846AD
:104BF000FBF7F4FB024629464046FBF789FB3846A3
:104C0000FBF7ECFB024639462846FBF781FB01E047
:104C1000DAF800502846FBF7E1FB03904DB100960F
:104C2000002360682946039A04F04AFF0A2005F031
:104C300095FB029804F006F9606804F09BFA60683E
:104C400004F0F4FA42F20C00065540E79C400020C4
:104C5000474554202F000000504F5354202F000090
:104C60006170690025730000436F6E74656E742D6A
:104C70004C656E6774683A20000000007B226A73FE
:104C80006F6E223A000000001CB504460022114657
:104C9000102004F041FC5FEA000901D10EF026FD6E
:104CA00050220021484604F009FA10B100200EF00D
:104CB0001DFDFF21484604F0DBFB00252E464FF486
:104CC000807700BF05EB850000EBC52104EB810375
:104CD0003A465C610C33CDE9006313A115480FF02F
:104CE0007FFC6D1C022DEDDB4FF001085FF000062C
:104CF00006EB860000EBC62004EB80050C3505F5BD
:104D00000057387B48B9291D484604F0ADF820B952
:104D100087F80C8028680EF0B9FD761C022EE7DBC0
:104D20000A2005F01BFBE1E7687474705F7265632D
:104D300076000000B94A00080A46032100F0F4B8E2
:104D40002DE9FE4F8A4644490446D1F8088098F878
:104D500000000007850E142D79D36089042876D3CE
:104D600060680078002872D0082870D1486901F185
:104D70001407C0F303120E2A69D08946096800F0AF
:104D800065F9002863D12089082860D305F10E0158
:104D90000E46204605F0BCFC002830D02089411981
:104DA00089B2884253D84FF420720E2005F014FDCA
:104DB00006004CD0718905F10800814216D32A46BD
:104DC00041467068FBF7A4FA2946304606F0F6FA29
:104DD000002806D021A3B6222EA13CA0FDF762FD3B
:104DE00004E02146304605F091FF18B1304606F048
:104DF00009F92CE0204606F005F934460CE031466E
:104E0000204606F0DBFA002806D014A3C72239A1F9
:104E10002EA0FDF747FD1AE029462046666805F0FA
:104E200077FCA0B960683968FF22C160D9F810101A
:104E300001610021317071800272418101228DE88F
:104E400006040A46FF233946204600F017FB204699
:104E5000BDE8FE4F06F0D6B8001000102E2E2F4DE4
:104E60006964646C6577617265732F5468697264F4
:104E70005F50617274792F4C7749502F7372632F92
:104E8000636F72652F697076342F69636D702E635E
:104E90000000000069636D705F696E7075743A2080
:104EA0006D6F76696E6720722D3E7061796C6F61EF
:104EB0006420746F2069636D702068656164657239
:104EC000206661696C65640A0000000041737365C7
:104ED0007274696F6E2022257322206661696C6589
:104EE00064206174206C696E6520256420696E20E1
:104EF00025730A0069636D705F696E7075743A207E
:104F0000726573746F72696E67206F726967696E1C
:104F1000616C20702D3E7061796C6F6164206661F8
:104F2000696C65640A0000002DE9FF4791468846D8
:104F300006464FF420722421222005F04DFC050086
:104F400031D06889242806D218A34FF4B47225A161
:104F50002FA0FDF7A7FC6C6877681C2284F80080FE
:104F600084F801904FF00008A4F80480A4F80680AB
:104F7000686871680830FBF7CBF9F868039003A8FC
:104F800000F08CFC60B1A4F802800122CDF8008012
:104F9000CDE90120FF2303AA0021284600F06EFA84
:104FA000284606F02FF8BDE8FF8700002E2E2F4D73
:104FB0006964646C6577617265732F5468697264A3
:104FC0005F50617274792F4C7749502F7372632F41
:104FD000636F72652F697076342F69636D702E630D
:104FE00000000000636865636B207468617420666C
:104FF0006972737420706275662063616E20686FD9
:105000006C642069636D70206D6573736167650002
:10501000417373657274696F6E2022257322206656
:1050200061696C6564206174206C696E652025641B
:1050300020696E2025730A000A460B21FFF774BF12
:10504000EFF30580002800D001207047421C12D0E9
:1050500088B191F82D2092070BD54B68834208D078
:10506000896800EA01020B409A4202D10143491CBF
:1050700001D0002070470120704700002DE9F74F54
:1050800088B00446099800251426808CAF1F143878
:10509000C11700EB5170C0F3CF0003906068069019
:1050A000017801F00F01052903D038460BB0BDE8A7
:1050B000F08F6189142907D25BA34FF43F7269A175
:1050C0006FA0FDF7EFFBF0E7C08801F0BFF8C0F379
:1050D0000C0100F4005002910790208914381FFA47
:1050E00080F88EE003984FF6FF7101EAC000414658
:1050F000404500D9084604904FF4207214210E2038
:1051000005F06AFB5FEA000A7ED0BAF80A001428AC
:1051100006D245A34FF4497263A159A0FDF7C2FB23
:105120001422DAF804000699FBF7F2F8DAF8040022
:105130000590049F35E06089811B8DB2B04206D294
:1051400039A340F22D3260A14DA0FDF7ABFBAF4279
:1051500000D23D461DB3052003F0A4FD5FEA00091F
:1051600057D060684B463044CDE9000541222946BE
:10517000002005F0B7FC5FEA000B50D0204606F097
:10518000CFF85549C9E904145946504605F0C6FC04
:10519000781B07043F0C06D000262468CBE7246860
:1051A0000026002FC7D1701986B20998808C143858
:1051B00040450298C0F30C0001DB079909B140F4A7
:1051C000005001F043F80599C8800498143080B26B
:1051D00001F03CF805994880059800214181099823
:1051E00051460A9A43699847504605F00BFF0499C7
:1051F000A8EB01001FFA80F8DDE90201084480B243
:105200000290B8F1000F00E006E07FF46BAF0020E1
:105210004CE7504605F0F6FE4FF0FF3046E74846B3
:1052200000F06CFBF5E700002E2E2F4D6964646CD6
:105230006577617265732F54686972645F5061723B
:1052400074792F4C7749502F7372632F636F726597
:105250002F697076342F6970345F667261672E63D0
:10526000000000006970345F6672616728293A2087
:105270007062756620746F6F2073686F72740000BF
:10528000417373657274696F6E20222573222066E4
:1052900061696C6564206174206C696E65202564A9
:1052A00020696E2025730A0074686973206E656535
:1052B00064732061207062756620696E206F6E6570
:1052C0002070696563652100702D3E6C656E203E1F
:1052D0003D20706F66660000D55E00082DE9F0473E
:1052E000456807460E4628780421B1EB101F03D00D
:1052F000384605F087FE77E000074FEA9068688837
:1053000000F0A4FF04463889A04203D9214638465C
:1053100005F06CFF79894145EAD33889A042E7D38B
:10532000B8F1140FE4D32969DFF81C91C1F303101D
:105330000E28C9F81410EA68C9F8102005D03046C4
:1053400000F086F850B1344619E096F82D00C007F9
:1053500002D070680028F6D1002410E099F81400FB
:1053600000247F280BD03948046806E0B44203D0FB
:10537000204600F06DF810B92468002CF6D13146B3
:10538000D9F81000FFF762FE0028B1D199F810009B
:10539000C0F303100E28ABD0002CA9D0E88830F061
:1053A000C00005D0384600F035F907001CD07D68F4
:1053B000C9F80850C9E90046297838460907890E16
:1053C000A9F80C10414605F0F9FF687A012818D0B9
:1053D000062811D011280AD04D462146D9F81400CC
:1053E000FFF734FE90B11EE00020BDE8F0873146A3
:1053F00038460DF091FB19E03146384608F024FAA2
:1054000014E031463846FFF79BFC0FE0287DC0F3DF
:1054100003100E2807D04146384605F0BFFE022192
:105420003846FFF789FC384605F0ECFD0021C9F845
:105430000010C9F80410C9F80810A9F80C10C9F830
:105440001010C9F81410CFE7001000106C00001005
:1054500010B590F82D10C9070CD0416851B1064A1B
:1054600052698A4204D001461046FFF7EFFD08B1A9
:10547000012010BD002010BD00100010FEB5DDE9B8
:105480000954089E1AB109B10F6807B9211D009689
:10549000CDE9015400F002F8FEBD00002DE9F84FFF
:1054A0000546DDE90BA8807BDDF828B01F461646CF
:1054B0008946012806D02FA34FF455723AA13DA08A
:1054C000FDF7F0F96FF00104002E35D014212846C5
:1054D00005F01EF9002832D168896C68142806D2BC
:1054E00024A34FF462723DA132A0FDF7DBF92772CD
:1054F00084F809A0306820614520207084F801B04C
:10550000288900F0A3FE414F60804FF0000AA4F804
:1055100006A0388800F09AFEA0803888401C3880A9
:10552000B9F1000F05D0D9F80000E060A4F80AA096
:105530000CE037480068F8E76889142802D2204652
:10554000BDE8F88F68686E4600690090B8F82400DE
:1055500040B12989814205D9324641462846FFF7A4
:105560008DFDEDE7D8F8143040463246294698477D
:10557000E6E700002E2E2F4D6964646C657761723A
:1055800065732F54686972645F50617274792F4C2F
:105590007749502F7372632F636F72652F6970762E
:1055A000342F6970342E6300702D3E726566203D85
:1055B0003D203100417373657274696F6E2022253E
:1055C0007322206661696C6564206174206C696E69
:1055D0006520256420696E2025730A006368656371
:1055E0006B207468617420666972737420706275D0
:1055F000662063616E20686F6C64207374727563DB
:10560000742069705F6864720000000094000010EC
:10561000E04B01082DE9F05F45688346287800F0EB
:105620000F0005287DD1E88800F010FEC004070CAB
:10563000688800F00BFE29780907890E814270D82E
:10564000401A1FFA80F8584605F009FB6A4C0646D6
:10565000208830440A2809D93146284600F0E4FB66
:1056600000285ED0208830440A28E8D8A146646823
:105670004FF0000A0CE06069E968884207D1A06930
:105680002969884203D1A089A988884203D0246867
:10569000002CF0D106E02CB1E88800F0D7FDC00462
:1056A0001BD025E0042003F0FDFA04000AD13146A6
:1056B000284600F0B9FBB04233DB042003F0F2FAD5
:1056C0000400CED02021FAF74AFE0F20E077D9F867
:1056D00004102160C9F8044004E0E08900F0B6FD40
:1056E000C00405D01422294604F10800FAF710FE80
:1056F000A87940F340156D1C08D007EB080080B274
:10570000B84263D34FF6EB7188425FD82A465946B8
:10571000204600F03BF9411C58D0B9F80020324433
:1057200000E064E0A9F8002035B107EB0801A1838F
:10573000A17F41F00101A177012845D1A08B14225E
:10574000143087B2606804F10801456828462E6865
:10575000FAF7DEFD384600F079FD6880A5F806A06E
:10576000A5F80AA0656809E014213046776805F0BD
:1057700025FE3146284605F0D1F93E68002EF3D1CA
:10578000D9F804104E468C4205D1002105E0086886
:10579000A04202D001460029F9D1204600F01AFAB1
:1057A000284605F05CFA04463088A04206D213A3CE
:1057B00040F29B2220A127A0FDF774F83088001B3F
:1057C00030802846BDE8F09F0020FBE7606870B994
:1057D000D9F80400844206D008A340F2AB2227A1E6
:1057E0001CA0FDF75FF80021204600F0F3F95846B1
:1057F00005F008FCE8E70000980000102E2E2F4D61
:105800006964646C6577617265732F54686972644A
:105810005F50617274792F4C7749502F7372632FE8
:10582000636F72652F697076342F6970345F6672AA
:1058300061672E630000000069705F7265617373B9
:105840005F70627566636F756E74203E3D20636C99
:10585000656E0000417373657274696F6E20222556
:105860007322206661696C6564206174206C696EC6
:105870006520256420696E2025730A006E6F7420F0
:105880006669727374616C74686F756768206A7595
:10589000737420656E7175657565640070B5014639
:1058A000144813E090F82D20D3070FD053070DD5DF
:1058B00043685BB184680D68234005EA04069E4294
:1058C00016D0920702D4C268954211D00068002811
:1058D000E8D10948006850B190F82D20D30706D0D0
:1058E000520704D5426812B109787F2900D10020FF
:1058F00070BD00006C0000107000001010B50400B6
:1059000006D106A34FF4317213A116A0FCF7CAFF0B
:105910002146BDE81040052003F050B92E2E2F4D32
:105920006964646C6577617265732F546869726429
:105930005F50617274792F4C7749502F7372632FC7
:10594000636F72652F697076342F6970345F667289
:1059500061672E63000000007020213D204E554CF1
:105960004C000000417373657274696F6E202225CC
:105970007322206661696C6564206174206C696EB5
:105980006520256420696E2025730A002DE9F05FEB
:105990004C68064693460F4600254FF00108608884
:1059A00000F054FC21784FF0FF3A0907890E81423C
:1059B00031D8A0EB0109E08800F048FCC0047C6805
:1059C000010C0020206001EB090083B2A180E3807C
:1059D0008B4220D3726829E05068B0F804C061455A
:1059E00015D222606DB1B5F806C0614513D3808829
:1059F000834210D82F60A088844506D04FF000085D
:105A000003E08088834206D877608AB12EE002D016
:105A1000C288914202D25046BDE8F09F25B1EA8883
:105A2000624501D04FF0000802680546002AD3D134
:105A300095B1E888A188884206D92AA34FF4DB7281
:105A400037A13FA0FCF72EFF2F60E888A18888428D
:105A50000CD04FF0000809E0706830B121A34FF47A
:105A6000DF7241A136A0FCF71DFF7760BBF1000F8C
:105A700002D1B07FC007CFD0B8F1000F30D072682C
:105A8000002A2DD050688088002829D1216820461E
:105A900029B14C68C088A1888842F7D020E0B8F1CD
:105AA000000F1DD032B90FA340F2DF123CA124A099
:105AB000FCF7F8FE70684068A04206D109A34FF4D5
:105AC000F07237A11EA0FCF7EDFE206830B105A3EF
:105AD0004FF4F17236A11AA0FCF7E4FE01209BE717
