:020000040800F2
:10000000201B01205D020008851C0008631A0008FF
:10001000831C00082B050008291E000800000000B2
:100020000000000000000000000000009D0100082A
:100030002D05000800000000F9010008891C0008D7
:1000400077020008770200087702000877020008AC
:10005000770200087702000877020008770200089C
:10006000770200087702000877020008770200088C
:10007000770200087702000877020008770200087C
:10008000770200087702000877020008770200086C
:10009000770200087702000877020008770200085C
:1000A00077020008551D0008770200087702000853
:1000B000770200087702000877020008770200083C
:1000C000770200087702000877020008770200082C
:1000D000770200087702000877020008770200081C
:1000E000770200087702000877020008770200080C
:1000F00077020008770200087702000877020008FC
:1001000077020008770200087702000877020008EB
:1001100077020008770200087702000877020008DB
:1001200077020008770200087702000877020008CB
:1001300077020008810500087702000877020008AE
:1001400077020008770200087702000877020008AB
:10015000770200087702000877020008770200089B
:10016000770200087702000877020008770200088B
:1001700077020008770200087702000800000000FC
:100180007702000877020008DFF80CD000F09EF933
:1001900000480047F15D0008201B01202C4B196826
:1001A0000868B0E8F04F80F30988BFF36F8F4FF015
:1001B000000080F3118870470000000008480068C4
:1001C000006880F308884FF0000080F3148862B65E
:1001D00061B6BFF34F8FBFF36F8F00DF00BF00BF6B
:1001E00008ED00E0DFF80C00016841F470010160E7
:1001F000704700BF88ED00E0EFF30980BFF36F8F19
:10020000134B1A681EF0100F08BF20ED108A20E96A
:10021000F04F106009B44FF0500080F31188BFF325
:100220004F8FBFF36F8F12F00DFB4FF0000080F384
:10023000118809BC19680868B0E8F04F1EF0100F6B
:1002400008BFB0EC108A80F30988BFF36F8F704746
:1002500024090010EFF3058070470000064880472E
:1002600006480047FEE7FEE7FEE7FEE7FEE7FEE79B
:10027000FEE7FEE7FEE7FEE7391D000889010008FA
:100280002DE9F05F0546002092469B4688460646CB
:10029000814640241BE0284641464746224600F05E
:1002A00004F953465A46C01A914110D311461846D4
:1002B000224600F0EBF82D1A67EB01084F46224664
:1002C0000120002100F0E2F817EB00094E41201E4A
:1002D000A4F10104DFDC484631462A464346BDE826
:1002E000F09F00000649074A0868504343F239026C
:1002F00010440860400870470149086070470000DA
:10030000C00000206D4EC64110B5431A934209D279
:100310008318881803E010F8011D03F8011D521E10
:10032000F9D210BD40EA01039B0703D009E008C9D8
:10033000121F08C0042AFAD203E011F8013B00F8AA
:10034000013B521EF9D210BDD2B201E000F8012BE0
:10035000491EFBD270470022F6E710B513460A4645
:1003600004461946FFF7F0FF204610BD421E12F862
:10037000013F002BFBD111F8013B02F8013B002BA0
:10038000F9D1704730B505462A460B4612F8010BE5
:1003900013F8014B08B1A042F8D01CB1002802D0DC
:1003A0006D1CF1E7284630BD10B5044604E00B781B
:1003B00000F8013B03B1491C521EF8D2204610BD83
:1003C000CAB2401E10F8011F8A4202D00029F9D19A
:1003D00000207047421C10F8011B0029FBD1801A35
:1003E000704710B5002200E0521C835C8C5CA34275
:1003F00001D1002BF8D1D8B2E1B2401A10BD30B50E
:1004000004460020034600E05B1C934203D2E05CFC
:10041000CD5C401BF8D030BD034611F8012B00F82D
:10042000012B002AF9D11846704730B50546002047
:10043000034600E05B1C934205D2EC5CC85C201ACA
:1004400001D1002CF6D130BD70B50F4D00B9286830
:10045000002412E00A4602E09E4203D0521C1378A8
:10046000002BF9D1DAB2224305D02BB124B10021FF
:1004700000F8011B04E00446401C0678002EE9D178
:100480002860204670BD0000D4090010202A04DB3B
:10049000203A00FA02F1002070479140C2F1200397
:1004A00020FA03F3194390407047202A04DB203AD6
:1004B00021FA02F00021704721FA02F3D040C2F184
:1004C000200291400843194670470000064C074D32
:1004D00006E0E06840F0010394E807009847103414
:1004E000AC42F6D3FFF754FEB43C0108F43C0108DB
:1004F00030B58C1810F8012B12F00F0301D110F851
:10050000013B120906D110F8012B03E010F8015B42
:1005100001F8015B5B1EF9D101E001F8013B521EBD
:10052000FBD1A142E6D3002030BDFEE770470000BA
:10053000064908B509684FF4FA52B1FBF2F141439C
:10054000009100BF491E0091FBD208BD2009001098
:1005500038B50446006800F58050816941F4801187
:100560008161206800F58050806900900120FFF7CC
:10057000DFFF2068009900F58050816138BD0000E0
:10058000014800F0FAB90000E03100202DE9F04107
:10059000044621B14FF40060E060C000A060E06953
:1005A0000025002861D028462368402619683A4A69
:1005B0001140D4E902273A43024342F40070084351
:1005C000186020680768012000F072F82068076052
:1005D0002068466020684668012000F069F82068BD
:1005E0004660206885602068C560216888694FF68C
:1005F0004172104040F080008861206886690120C7
:1006000000F056F8206886612068C5612068C569D9
:10061000012000F04DF82068C561226802F5805283
:1006200090691E4908401E4901439161206800F508
:1006300080508569012000F03BF8206800F580506B
:1006400085612068174900F580500160206800F539
:1006500080500568012000F02BF8206800F58050DC
:100660000560A069012803D009E04FF480609BE792
:10067000206800F58050C1690B4A1143C16160696F
:100680000A4982880A640278D0F8010042EA002010
:100690004864BDE8F08100000F8120FF233FDEF8B1
:1006A000040020028020C1024000010000800240BE
:1006B00070B5044600F078FD0546601C02D0044881
:1006C0000078044400F070FD401BA042FAD370BDD6
:1006D0001C0000202DE9F041054690F845000C462D
:1006E000012875D0012685F84560022085F8440070
:1006F000002C70D02A68116841480140D4E90003F9
:100700001843D4E902373B431843AB6818432369C5
:10071000184363691843EB681843A3691843E369F6
:100720001843236A1843636A1843A36A18430843AB
:100730001060286807680120FFF7BAFF2868076083
:10074000D4E90B010843D4E90D1211430843E16BCE
:100750000843216C0843616C0843A16C0843296875
:100760004860286847680120FFF7A2FF28684760B3
:100770002968E06C88602968206DC8602A689169E2
:100780004FF641700140D4E916031843B4F8547091
:10079000236E43EA07431843636E1843A36E18435E
:1007A00008439061286887690120FFF781FF286866
:1007B0008761D4E91B0108432968C8612868C469B6
:1007C0000120FFF775FF2868C46114E000E002E033
:1007D0000220BDE8F0812968086820F49042D5E93C
:1007E0000203184310430860286804680120FFF7DB
:1007F0005FFF2868046005F8446F00206870E8E730
:100800000F8120FF2DE9F04390F845400025012C91
:100810000DD04FF0010C80F845C0022480F8444010
:1008200044F2F4574FF000495E1E816217E0022047
:10083000BDE8F08301EB4514C4F80090C5EBC51882
:1008400008EB480802EB8808C4E90178B54204D2F5
:1008500004F12008C4F80C8000E0E1606D1C9D42AA
:10086000E8D3026802F58052D16080F844C00021CC
:1008700080F845100846DBE72DE9F043914690F8F3
:1008800045200024012A0AD0012680F84560022272
:1008900080F844204FF4801C5D1EC1621BE00220E2
:1008A000BDE8F08301EB4412C2F800C0C4EBC417EA
:1008B00007EB470809EB88079760C7691FB91768F6
:1008C00047F440071760AC4203D202F12007D7601B
:1008D00000E0D160641C9C42E4D3026802F58052BF
:1008E000116180F84460002180F845100846D7E780
:1008F000704730B590F845100023012908D0012237
:1009000080F84520022180F844100024816A1AE012
:10091000022030BD0D685B1CC5F30125022D0AD0F5
:100920000D6815F4407F09D04163836B5B1C8363C2
:10093000012B12D012E08263016302E0856B6D1C13
:100940008563C96881620D68002D01DB042BE1D34A
:1009500000F8442F4470012030BD01630B68C3F3DD
:100960000D431B1FC363036B9B680364C96840F896
:10097000281F02774477002030BD70B50446006818
:1009800000F5805041694FF0000549064FF001061F
:1009900008D5204600F0DAF92068402100F58050A3
:1009A000416109E04069C0070AD0204600F0DCFA46
:1009B000206800F58050466184F8446084F8455012
:1009C00020684FF4803100F580504161206800F5C7
:1009D0008050406900040CD52046FFF789FF20684D
:1009E0004FF4004100F58050416184F8446084F880
:1009F000455070BD2DE9FC474FF000060400B1469C
:100A0000009603D094F8440018B107E00120BDE837
:100A1000FC8784F84560204600F0E2F866480168EB
:100A200041F480410160006800F480400190634817
:100A3000016821F4000101600168226A114301602C
:100A4000206800F58050016841F00101016000F06C
:100A5000ABFB05464FF4FA7709E000BF00F0A4FBBA
:100A6000401BB84203D9032004F8440F67E0206814
:100A700000F580500068C007F0D12068006920F0C0
:100A80001C0500F009FD4E494E4A0144914202D234
:100A900045F0080516E04C494C4A0144914202D207
:100AA00045F00C050EE04A494A4A0144914209D3F7
:100AB000494908444949884202D245F0040501E009
:100AC00045F01005206805614FF4004200212046E2
:100AD00000F04CFA0125A8BBFF20FFF7E9FD606894
:100AE00088B300F061FB804641F288376A460121F5
:100AF000204600F0E9F800F057FBA0EB0800B842F0
:100B000017D800984007F1D54FF4805200212046B5
:100B100000F02CFAB0B900F047FB80466A4601218C
:100B2000204600F0D1F800F03FFBA0EB0800B842EF
:100B30000AD901212046FFF729FD04F8445F03206C
:100B4000667064E724E018E000988006E6D56A46FF
:100B50001F21204600F0B8F8D0B90098C10603D58F
:100B60004FF40061E16000E0E660400701D5A66057
:100B700019E04FF48040A06015E0E068A168C0086B
:100B800040EA510082B20021204600F0EFF930B176
:100B900001212046FFF7FAFC84F8445036E740F67E
:100BA000FF70FFF785FD49462046FFF7EFFC84F80C
:100BB000445000202BE70000443802400438014034
:100BC00000D3CEFEC0E1E40040F1E9FD40787D01B4
:100BD00000796CFC005A6202001F0AFA80F0FA02E7
:100BE000F0B587B0044614216846FFF7B4FB3149DD
:100BF000206888425BD130480024016841F00071D0
:100C00000160016801F000710591016841F08061A7
:100C10000160016801F080610591016841F00061A7
:100C20000160016801F000610591016841F0040173
:100C30000160016801F004010591016841F00101C2
:100C40000160016801F001010591016841F00201B4
:100C500001600068022500F0020005903220CDE915
:100C6000000502AA03260B2782E8D0006946134834
:100C700000F0B8F98620CDE9000502AA694682E8AD
:100C8000D0000F4800F0AEF94FF46050CDE90005F8
:100C900002AA694682E8D0000A4800F0A3F90022BF
:100CA00011463D2000F00CFB3D2000F0FBFA07B0A0
:100CB000F0BD0000008002403038024000080240D1
:100CC00000000240000402402DE9F047044690F87D
:100CD0004400914682281DD0822084F84400226876
:100CE00010694FF6FF7500F01C03208A05EAC0204A
:100CF00018434FF4F86303EA8111014321F0020025
:100D000040F00105156100F04FFA064601274FF447
:100D1000803810E00220BDE8F08700BF00F044FA00
:100D2000801B404505D304F8447F002060700320F9
:100D3000F1E720680569E807F0D12068406981B2D1
:100D4000C9F8001084F844700020E4E70148006806
:100D500008F026BCF8080010F8B5044690F84500E5
:100D6000012839D0012584F84550022084F8440038
:100D700020680026016841F00801016020680068D1
:100D800000902846FFF7D4FB21680098086020688F
:100D9000016841F0040101602068006800900120B2
:100DA000FFF7C6FB2168009808602046FFF7D0FBDC
:100DB000206800F58050816941F40051816120680C
:100DC00000F58050816941F00201816184F844504E
:100DD00084F845600020F8BD0220F8BDF8B504464F
:100DE00090F84500012839D0012584F845500220AB
:100DF00084F84400206800F58050816921F4005196
:100E00008161206800F58050816921F002018161D3
:100E100020680026016821F0040101602068006854
:100E200000900120FFF784FB2168009808602046AD
:100E3000FFF78EFB2068016821F00801016020683F
:100E4000006800900120FFF773FB2168009808609C
:100E500084F8445084F845600020F8BD0220F8BDB5
:100E6000F0B590F845200023012A11D0012780F821
:100E70004570022280F84420002459B1C66A3268C5
:100E8000002A0ADA122100F8441F44700120F0BD44
:100E90000220F0BD00F8447FF7E740F2F455A94284
:100EA0000BD9B1FBF5FCB1FBF5F205FB1C1CBCF149
:100EB000000F00D0521C012A43D1326842F0405248
:100EC0003260C26AC1F30C015160C16A0A6842F023
:100ED00000420A60C16AC968C16234E0D6F800C045
:100EE0002CF0405CC6F800C033B9C66AD6F800C022
:100EF0004CF0805CC6F800C0C66A7560561EB342EE
:100F000014D1C66AD6F800C04CF0005CC6F800C028
:100F1000C2F10106C6EBC61606EB4606D0F82CC099
:100F200001EB8606C6F30C06CCF80460C66AD6F858
:100F300000C04CF0004CC6F800C0C66A5B1CF668E6
:100F4000C6629342CAD3016801F580514A695207CB
:100F500005D504224A61016801F580514C6000F812
:100F6000447F44700020F0BD704700002DE9F0413F
:100F7000044690F8440042281ED0422084F84400E1
:100F8000236818694FF6FF7600F01C05208A06EAF0
:100F9000C02028434FF4F86505EA8111014390B25F
:100FA00041F0030558612068056100F0FDF8064630
:100FB00001274FF4803810E00220BDE8F08100BF27
:100FC00000F0F2F8801B404505D304F8447F002070
:100FD00060700320F1E720680569E807F0D184F824
:100FE0004470EAE72DE9F84F00224FF0010803258D
:100FF0004FF00F0E0B6808FA02F42340A3426ED1A3
:101000004E68012E05D0022E03D0112E01D0122ED3
:1010100012D186684FEA420C05FA0CF7BE43CF683E
:1010200007FA0CF7374387604668A6430C79C4F388
:101030000014944034434460C668570005FA07FC26
:101040008C6826EA0C06BC403443C4604C68022C11
:1010500001D0122C13D1D40800EB8404A346D4F899
:10106000209054074FEAD46A0EFA0AF629EA0609D4
:101070000E6906FA0AF646EA0906CBF82060066809
:101080000C7926EA0C0604F00304BC4034430460E7
:101090004C68E40065D5364C266846F480462660E8
:1010A000246822F0030604F480440094314C344454
:1010B000A446D4F808489607370F0EFA07F6B4434B
:1010C0002D4EB04201D1002624E02C4EB04201D179
:1010D00001261FE02A4EB04202D102261AE040E06B
:1010E000284EB04201D1032614E0274EB04201D170
:1010F00004260FE0254EB04201D105260AE0244E19
:10110000B04201D1062605E0224EB04201D10726A9
:1011100000E00826BE402643CCF808681E4E34681E
:101120004F689C43FF0300D51C4334601A4C241DB8
:1011300026684F689E43BF0300D51E432660164EA7
:10114000083634684F689C43FF0200D51C43346066
:10115000114E0C3634684F689C43BF0200D51C43C7
:101160003460521C102AFFF445AFBDE8F88F000030
:1011700044380240003001400000024000040240B8
:1011800000080240000C024000100240001402401F
:1011900000180240001C0240003C01400AB181617D
:1011A00070470904FBE700000148806870470000B1
:1011B0001C00002002488168027811448160704759
:1011C0001C0000200B4810B5016841F4007101605B
:1011D000016841F480610160016841F4807101603F
:1011E000032000F08DF8002000F006F800F03EF833
:1011F000002010BD003C024010B5014688B000221E
:10120000192000F05DF8192000F04CF81348002474
:10121000016841F001010160006805A900F00100CA
:101220000690684600F018F900F03CF90C494000BF
:10123000B0FBF1F10C480B4A491E026040F2E73264
:10124000C0E90324C0E9011400F01CFB10B1012027
:1012500008B010BD044800F031FBF9E74438024003
:1012600040420F0000000140000100200C4882B005
:10127000016841F480410160006800F48040009002
:101280000748001F016841F080510160006800229A
:1012900000F0805000900F21901E02B000F010B8B6
:1012A00044380240002809DB00F01F020121914070
:1012B0004009800000F1E020C0F8001170470000F4
:1012C000F0B40E4B1B680C46C3F30223C3F10705B1
:1012D000042D00D90425191D072901D2002300E09F
:1012E000DB1E012606FA05F1491E214099409E4069
:1012F000761E16403143F0BC00F0BCBD0CED00E0A2
:10130000064900F0070208684FF6FF03184040EA5C
:101310000220034A10430860704700000CED00E013
:101320000000FA052DE9F0470E46050065D0DFF80C
:101330001481D8F80000F7B200F00F00B04207D2D5
:1013400088F80070D8F8000000F00F00B04254D1C7
:1013500028683D4C810712D5400703D5206840F42A
:10136000E05020602878000703D5206840F46040F2
:1013700020602068A96820F0F000084320602878E9
:10138000C0072DD0304968680839012812D00228DA
:1013900013D0032811D00968890700292DDA2168A4
:1013A00021F0030101432160FFF7FEFE814641F277
:1013B000883A0EE009688903EFE709688901ECE7DC
:1013C000FFF7F2FEA0EB0901514502D90320BDE869
:1013D000F0872068696800F00C00B0EB810FEFD156
:1013E000D8F80010404601F00F01B14207D907704C
:1013F000006800F00F00B04201D00120E7E7287834
:10140000400705D52068E96820F4E05008432060D3
:101410002878000706D52068296920F4604040EA52
:10142000C100206000F04EF82168084AC1F30311A2
:10143000515CC8400649086006480068FFF7DCFEBA
:101440000020C4E7003C02400838024094370108FD
:1014500020090010200000200F2202600C4A1368AF
:1014600003F003034360136803F0F0038360136821
:1014700003F4E053C36012684FF4E05303EAD2026E
:1014800002610448006800F00F0008607047000027
:1014900008380240003C02400148006870470000E4
:1014A000200900100448054900680968044AC1F38E
:1014B0004231515CC8407047200900100838024092
:1014C000A4370108154810B5006810F00C02144844
:1014D00013D04110042A0FD0082A0ED10F4C241F1C
:1014E0002268236802F03F025B0207D52068C0F340
:1014F0008810A0FB010106E0084610BD2168C1F379
:101500008811A1FB00010023FEF7BAFE2168C1F398
:101510000141491C4900B0FBF1F010BD0838024000
:101520000024F4002DE9F84F04006ED02078DFF895
:101530003C93C007A9F104054AD009F104000168F1
:10154000C1F38101012908D00068C0F3810002289D
:101550000AD1D9F80000400206D52868800337D5A3
:1015600060680028E1D033E06068B0F5803F10D0BB
:10157000B0F5A02F286810D020F4803028602868AB
:1015800020F4802028606068A8B1FFF70DFE0646B1
:101590000DE0286840F48030F4E740F480202860B3
:1015A000F7E700BFFFF700FE801B642873D82868A8
:1015B0008003F7D50CE0FFF7F7FD064605E000BF16
:1015C000FFF7F2FD801B6428F0D828688003F7D469
:1015D0002078DFF89C8280074FF0000A3ED5A348B0
:1015E000001D016811F00C0F08D00068C0F38100E5
:1015F00002280BD1D9F80000400207D428688007E0
:1016000016D5E068012800D112E02BE1E068B8B1FE
:101610000120C8F80000FFF7C7FD064605E000BF3F
:10162000FFF7C2FD801B0228C0D828688007F7D5C5
:101630002868216920F0F80040EAC10028600DE028
:10164000C8F800A0FFF7B0FD064604E0FFF7ACFDC8
:10165000801B02281FD828688007F7D4207800074D
:1016600022D5824E83486169703671B101210160D3
:10167000FFF79AFD074604E0FFF796FDC01B02281E
:1016800009D830688007F7D50EE0C0F800A0FFF752
:101690008BFD074605E082E0FFF786FDC01B0228B0
:1016A0007DD830688007F7D42078400768D5DFF808
:1016B000BCB100270BF13C0BDBF80000C0000BD4E1
:1016C000DBF8001041F08051CBF80010DBF800008F
:1016D000012700F080500090674E3068C00510D49C
:1016E000306840F480703060FFF75EFD009005E0E8
:1016F000FFF75AFD0099401A022850D83068C005FB
:10170000F6D55A4EA0686C3601280FD005283068EF
:1017100010D020F001003060306820F0040030600C
:10172000A068B8B1FFF740FD00900FE0306840F0CE
:101730000100F4E740F004003060F7E7FFF734FD04
:101740000099411A41F28830814266D8306880079A
:10175000F4D50EE0FFF728FD009007E0FFF724FD29
:101760000099411A41F28830814256D8306880078A
:10177000F4D42FB1DBF8001021F08051CBF8001029
:10178000A069C8B33949091D0968C1F3810102295B
:101790004AD00228504607D0C8F8600000E03CE07C
:1017A000FFF702FD04463BE04746C8F86000FFF73C
:1017B000FBFC064605E000BFFFF7F6FC801B022895
:1017C0002BD828688001F7D4D4E907010843A16A1F
:1017D0002A4A490802EB0141626A41EA8211084340
:1017E00094F82C1040EA0161C9F800100120386615
:1017F000FFF7DAFC044606E036E000BFFFF7D4FC52
:10180000001B022809D828688001F7D52CE000BF0A
:10181000FFF7CAFC001B022802D90320BDE8F88F9D
:1018200028688001F4D41FE00128F7D0D9F800001F
:10183000E26900F48001914214D1226A00F03F0174
:1018400091420FD147F6C071626A0140914209D1BD
:10185000A26A00F44031914204D1E16A00F0706064
:10186000884201D00120D9E70020D7E704380240A0
:1018700000004742800E4742007000400000FFFF1A
:101880007047704710B5040003D094F83D0010B1C4
:1018900007E0012010BD002084F83C00204600F045
:1018A0000CF8022084F83D00211D206800F058FA51
:1018B000012084F83D00002010BD70470168CA680F
:1018C00042F00102CA600068816801F00701062940
:1018D00003D0016841F001010160002070477047AA
:1018E00070B50446006801694FF00005C9438907D7
:1018F00015D4C168C943890711D4E91E01610120CB
:101900002077206880698007204602D0FFF7E7FF34
:1019100004E000F098F8204600F096F8257720685B
:101920000169C943490717D4C168C943490713D49A
:101930006FF004010161022020772068806910F4B3
:10194000407F204602D0FFF7CAFF04E000F07BF89A
:10195000204600F079F8257720680169C943090716
:1019600016D4C168C943090712D46FF00801016198
:10197000042020772068C0698007204602D0FFF746
:10198000AEFF04E000F05FF8204600F05DF8257738
:1019900020680169C943C90617D4C168C943C9068B
:1019A00013D46FF010010161082020772068C0690E
:1019B00010F4407F204602D0FFF791FF04E000F0D2
:1019C00042F8204600F040F8257720680169C943B5
:1019D000C90708D1C168C943C90704D1891E01617B
:1019E000204600F033F820680169C943090609D48C
:1019F000C168C943090605D46FF080010161204622
:101A0000FFF73EFF20680169C943490609D4C16850
:101A1000C943490605D46FF040010161204600F03A
:101A20001FF820680169C94389060BD4C168C943FE
:101A3000890607D46FF0200101612046BDE870409F
:101A4000FFF71FBF70BD7047704700000068034973
:101A5000884201D1FFF7AEBB704700000000014093
:101A60007047FEE707490968C9070AD00549803968
:101A70000968C90705D04FF060410A68002AFCD008
:101A800008707047800E00E010B58EB01C220B4924
:101A90006846FEF739FC0021684607F0DBFD084C7C
:101AA00006491C2220601C3107A8FEF72DFC0021EE
:101AB00007A807F0CFFD60600EB010BD2437010805
:101AC0001400002070B586B014216846FEF743FC70
:101AD0001E480024016841F080010160016801F0A6
:101AE00080010591016841F004010160016801F085
:101AF00004010591016841F001010160016801F0F4
:101B000001010591016841F002010160016801F0E5
:101B100002010591016841F00801016000680C4E66
:101B200000F008004FF48055059000222946304609
:101B3000FFF734FB01200095CDE9010469463046EA
:101B40000394FFF74FFA06B070BD00003038024032
:101B5000000C0240F0B5444D8DB0C0202870A82084
:101B600068700024AC700720E8702E1DFF203070D4
:101B70007070B070371DF4703C707C70BC70FC707D
:101B8000214620460FF034FC2868E97803BA0A069B
:101B900003F47F4342EA032203BA00BA03F47F034B
:101BA000084342EA1322A5F10C0142EA10600860E2
:101BB0003068F17803BA0A0603F47F4342EA03224D
:101BC00003BA00BA03F47F03084342EA1322A5F1E3
:101BD000080142EA106008603868F97803BA0A061A
:101BE00003F47F4342EA032203BA03F47F0300BAFB
:101BF00042EA1322084342EA1060291F2B1F0860A3
:101C00001A481B490094CDE901101A1F111F1948E9
:101C100006F0F2FF174807F009FA164D95F82D0067
:101C20004007284602D507F015FB01E007F004FA4B
:101C30001149104807F054FA0A9401210AA80B949C
:101C400007F07AFC08491C22103908601C31C1E9F0
:101C500000500A4903A8FEF757FB034903A80C31BB
:101C600007F0F8FC0DB0F0BD0C090010C11501081B
:101C7000ED370008283200201139000878370108B4
:101C80007047FEE77047000010B5502080F31188C0
:101C9000BFF34F8FBFF36F8F11F0AEFB18B1044944
:101CA0004FF080500860002080F3118810BD0000C4
:101CB00004ED00E030B593B030216846FEF74BFBF1
:101CC00014210CA8FEF747FB19480025016841F0D4
:101CD00080510160006800F0805011901548016843
:101CE00041F4804101600068022400F480401190BA
:101CF00001200090000401908001CDE9064008AA6F
:101D00000420A82182E813000B906846FFF70AFC24
:101D10000CA90F2081E831004FF4A0500F90E00291
:101D2000109005210CA8FFF7FDFA13B030BD00009C
:101D300040380240007000400548016841F47001DD
:101D4000016003494FF0006080390860704700006F
:101D500088ED00E00148FFF7C3BD0000000100204E
:101D6000F0B50268254C264D264E274F274B4FF0E5
:101D7000804CA04209D0604507D0A84205D0B042AF
:101D800003D0B84201D0984204D122F0700E4A68C4
:101D900042EA0E02A0421BD0604519D0A84217D0DB
:101DA000B04215D0B84213D0984211D0184DA84275
:101DB0000ED0184DA8420BD0174DA84208D0174D91
:101DC000A84205D0164DA84202D0164DA84203D114
:101DD00022F44075CA682A434D6922F080022A43E2
:101DE00002608A68C2620A688262A04201D0984298
:101DF00001D10969016301214161F0BD0000014089
:101E00000004004000080040000C004000040140B5
:101E100000400140004401400048014000180040DB
:101E2000001C004000200040FEE700000FB4054BFE
:101E300010B503A9044A029800F03CF810BC5DF804
:101E400014FB0000C1390008BC0000200FB4084B8F
:101E500010B504A902AA039800F02CF8044602A9C0
:101E6000002000F087F9204610BC5DF814FB00004C
:101E7000752100080907090E002804DB00F1E020A5
:101E800080F80014704700F00F0000F1E02080F8A7
:101E9000141D704702E008C8121F08C1002AFAD1B9
:101EA00070477047002001E001C1121F002AFBD1DA
:101EB000704700002DE9FF4F8DB09B460F4604464A
:101EC000002606E025280BD05A460F999047641C3F
:101ED000761C20780028F5D111B03046BDE8F08F8F
:101EE0000025A8460122984900E0054314F8013F67
:101EF000203B02FA03F00842F7D120782E2817D1B0
:101F000014F8010F45F004052A280ED06FF02F02B7
:101F10002078A0F1300109290AD808EB880102EBEA
:101F2000410100EB0108641CF2E757F8048B641CC4
:101F300020786C280DD004DC4C2812D06A2811D1EE
:101F400004E074280DD07A280CD10AE045F400157D
:101F500007E0617845F48015814202D1641C05F5E3
:101F60008015641C2278692A45D008DC002AB3D089
:101F7000582A69D0632A10D0642A08D13BE0702A1D
:101F800067D0732A13D0752A5CD0782A5CD01046AB
:101F90005A460F999047761CD3E017F8040B8DF83A
:101FA000000000208DF80100E946012003E057F809
:101FB000049B4FF0FF3069074FF0000501D40AE0A1
:101FC0006D1C45450DDA8542FADB19F8051000292C
:101FD000F6D106E06D1C8542FCDB19F805100029DE
:101FE000F8D12E4404E019F8010B5A460F99904796
:101FF0006D1EF8D2A5E00A200021CDE90801C5F345
:10200000025002280DD001CFC117031E71F1000349
:102010000DDA4FF0000CD0EB0C006CEB01012D231E
:1020200008E0FF1D27F00707F7E80201EDE72B05A1
:1020300004D52B238DF8283001233BE0EB0739D062
:102040002023F7E70A2000E010200021CDE9080155
:1020500007E01020002145F00405CDE908014FF00C
:102060000808C5F3025002280FD001CF00214FF01D
:10207000000A2B071FD5702A0DD0DDE908C38CF0AC
:10208000100C5CEA030C0CD015E0FF1D27F00707CD
:10209000F7E80201EBE740228DF828204FF0010A13
:1020A0000BE050EA010306D030238DF828308DF87C
:1020B000292002239A46582A04D024A20DF120098F
:1020C0000B9209E026A2F9E7DDE90823FEF7D8F82C
:1020D0000B9B9B5C09F8013D50EA0102F4D1ADEB8A
:1020E000090020300890680701D44FF001080899D2
:1020F000884502DDA8EB010000E0002080460025B5
:1021000006E00AA85A46405D0F9990476D1C761C60
:102110005545F6DB04E030205A460F999047761C6F
:10212000B8F10001A8F10108F5DC05E019F8010B90
:102130005A460F999047761C0899481E0890002926
:10214000F4DC641CC5E6000009280100303132339C
:1021500034353637383961626364656600000000E3
:1021600030313233343536373839414243444546CD
:10217000000000000A68531C0B60107070470000DC
:102180002DE9F04790460E4604006FF0050555D046
:1021900004F11400814609F0D2F900284ED0EF1F57
:1021A000002E3DD0B8F1000F06D032A340F22A2213
:1021B0003DA147A0FFF73AFE2078616A05F0BCFE1A
:1021C00005004FF0FF383DD06E6009F0D9F8294680
:1021D000484609F0AAF9A0B36C680021204609F02E
:1021E000CDFC002120460DF023F9002120460DF002
:1021F0005FFE0022114620460CF04EF900212046D9
:102200000AF03CF90020686005F11000044609F06E
:1022100069F9204609F086F9284606F03FF81FE0E4
:10222000384603F03BFD0146484609F07EF928B9DF
:10223000636A1BB100221146204698472846BDE834
:10224000F0870FE0384603F029FD0146484609F0C3
:102250006CF928B9636A1BB10022114620469847E1
:102260004046ECE7636A1BB10022114620469847BE
:102270000020E4E72E2E2F4D6964646C657761724F
:1022800065732F54686972645F50617274792F4C62
:102290007749502F7372632F6170692F6170695F86
:1022A0006D73672E63000000657870656374206E3F
:1022B0006577706362203D3D204E554C4C206F7217
:1022C00020657272203D3D204552525F4F4B000009
:1022D000417373657274696F6E20222573222066C4
:1022E00061696C6564206174206C696E6520256489
:1022F00020696E2025730A002DE9F0410F46002663
:1023000010A1FEF73FF8C8B110A1FEF73BF804009A
:1023100014D0202008F0CAFD05000FD01E22A11DF8
:10232000FEF742F80BA12846FEF78EF83946FEF775
:1023300058F800B90126284610F0BAF83046BDE832
:10234000F0810000436F6F6B69653A00746F6B65D5
:102350006E3D00000D00000001004FF000000AD0AB
:10236000C97A4A1C022A06D2034A02EB8101496853
:10237000002900D001207047740900102DE9F35F97
:10238000DFF88880064600EB0611A8F5886900256D
:1023900009EB0114AA4604F1100B00BF05EB450739
:1023A000404658F8273053B100EB87010A7AB24211
:1023B00005D14A6858460199984748F827A06D1CEE
:1023C000EDB2042DEAD3002104254846B1420DD0D8
:1023D00001EB011200EB0212937A022B06D1D27BA1
:1023E000E37B9A4202D1E573BDE8FC9F491CC9B268
:1023F0000429EBD3E07B0428F6D2054E56F82000E2
:102400000FF010FDE17B46F821A0ECE7ACAE002018
:102410005CAA00202DE9F0410746324E00EB071080
:1024200006EB0014042F06D32FA340F21C423AA15E
:1024300040A0FFF7FBFCA07A002850D000254FF009
:10244000010801280CD0022821D0032841D0BDE882
:10245000F04125A340F25B4240A136A0FFF7E6BC65
:10246000FDF740FF81B2002000EB001206EB0212E4
:10247000937A022B02D112898A42F1D0401CC0B259
:102480000428F1D321810220A072E57218E0207B9C
:10249000401E10F0FF00207321D1607B401CC0B2B1
:1024A0006073042805D020733846BDE8F04100F081
:1024B00067B82046FFF750FF30B1E07A401CE07269
:1024C00084F80C806573EFE700213846FFF756FF6C
:1024D00004E0206810B1401E206000D1A572BDE864
:1024E000F08100006CAA00202E2E2F4D6964646CD0
:1024F0006577617265732F54686972645F506172A9
:1025000074792F4C7749502F7372632F636F726504
:102510002F646E732E630000617272617920696EA0
:10252000646578206F7574206F6620626F756E64C5
:1025300073000000417373657274696F6E20222509
:102540007322206661696C6564206174206C696E19
:102550006520256420696E2025730A00756E6B6EF8
:102560006F776E20646E735F7461626C6520656E58
:102570007472792073746174653A000070470000CA
:102580002DE9FF5F04464A4900EB041001EB0015FA
:10259000E87A022806D347A340F2FA2251A157A0B5
:1025A000FFF744FCE97A5F48002650F8210040B369
:1025B00005F110000446FDF70DFF123081B24FF413
:1025C0002072362007F0D4F85FEA000A65D0009642
:1025D00001960296288902F079FDADF800000120ED
:1025E0008DF802004FF4807BADF804B00C226946F0
:1025F000504607F025FF0C26641E641C2746002267
:102600000BE000212046FFF7B9FEAE72002004B0B7
:10261000BDE8F09F521CD2B2641C20782E2801D055
:102620000028F7D1E01B1FFA80F9B01800F101086B
:10263000B8F5803F35D23146504607F093FD761C01
:10264000B3B24A463946504607F0B6FF20781FFA23
:1026500088F60028D1D100223146504607F082FD8D
:10266000761CADF80CB0B3B2ADF80EB0042203A9DD
:10267000504607F0A1FFEA7A2A49E87B01EB820283
:102680000B493523103951F8200051460FF022FC38
:102690000446504607F082FC01E04FF0FF3420462C
:1026A000B5E7504607F07AFC6FF00500AFE7000091
:1026B0006CAA00202E2E2F4D6964646C65776172C0
:1026C00065732F54686972645F50617274792F4C1E
:1026D0007749502F7372632F636F72652F646E7327
:1026E0002E630000646E7320736572766572206FCE
:1026F0007574206F66206172726179004173736531
:102700007274696F6E2022257322206661696C6580
:1027100064206174206C696E6520256420696E20D8
:1027200025730A007409001010B500242046FFF735
:1027300071FE641CE4B2042CF8D310BD70B50546DC
:102740000C46880706D009A34FF4B67213A11BA04C
:10275000FFF76CFB08F06AFEA96809682160A968A8
:102760000C60BDE8704008F089BE00002E2E2F4D91
:102770006964646C6577617265732F54686972640B
:102780005F50617274792F4C7749502F7372632FA9
:10279000636F72652F6D656D702E63006D656D7072
:1027A0005F667265653A206D656D2070726F706549
:1027B000726C7920616C69676E6564004173736542
:1027C0007274696F6E2022257322206661696C65C0
:1027D00064206174206C696E6520256420696E2018
:1027E00025730A0070B5044608F020FE0546A0686F
:1027F0000468002C0FD021680160A00706D008A350
:102800004FF48C7212A11BA0FFF710FB284608F0B2
:1028100035FE204670BD284608F030FE002070BD11
:102820002E2E2F4D6964646C6577617265732F5429
:10283000686972645F50617274792F4C7749502FC8
:102840007372632F636F72652F6D656D702E6300F9
:102850006D656D705F6D616C6C6F633A206D656D59
:10286000702070726F7065726C7920616C69676E30
:1028700065640000417373657274696F6E20222570
:102880007322206661696C6564206174206C696ED6
:102890006520256420696E2025730A002DE9F0412A
:1028A000040006D0184E306884420AD10020BDE8EA
:1028B000F081502080F31188BFF34F8FBFF36F8FEB
:1028C000FEE70FF0C1FD65697768B6680FF0DCFDC3
:1028D000BD4201D0B54201D10220E8E70B48854254
:1028E00008D1A06A0028F7D194F850000128F3D04D
:1028F0000320DCE705481438854202D00DB10120E1
:10290000D5E70420D3E7000024090010480D00108B
:102910002DE9F0470F46040006D13FA34FF4DC72C7
:102920004AA14EA0FFF782FA08F080FD00266660FB
:102930002772217F41F0010121776578667008F0E8
:102940009DFD636A7BB10022042120469847636A9B
:102950004BB10022114620469847636A1BB1002202
:10296000022120469847384603F098F9804604F142
:102970001000814608F0E3FD18B14146484608F0D2
:10298000D4FD04F11400814608F0D9FD18B1414688
:10299000484608F0CAFD012D0FD0042D0DD0032D9F
:1029A0000BD0206A002834D0BDE8F0471AA340F2CB
:1029B000F71234A129A0FFF739BA217FC1F38000B3
:1029C00001F0FB012177002823D1206A30B912A33E
:1029D0004FF4F37232A121A0FFF728FA206A042DE8
:1029E00008D00771206A05680C35284608F0E4FD18
:1029F00010B108E00671F5E707A340F2EF122FA12E
:102A000016A0FFF713FA28462662BDE8F04708F043
:102A1000D0BDBDE8F08700002E2E2F4D6964646C98
:102A20006577617265732F54686972645F50617273
:102A300074792F4C7749502F7372632F6170692F0F
:102A40006170695F6D73672E63000000636F6E6E67
:102A500020213D204E554C4C000000004173736511
:102A60007274696F6E2022257322206661696C651D
:102A700064206174206C696E6520256420696E2075
:102A800025730A00636F6E6E2D3E63757272656EFC
:102A9000745F6D7367203D3D204E554C4C00000027
:102AA000636F6E6E2D3E63757272656E745F6D73CB
:102AB0006720213D204E554C4C000000696E617628
:102AC0006C6964206F705F636F6D706C65746564B2
:102AD0005F73656D0000000070B5094D0646002467
:102AE00004EB440005EBC000017D29B18068B042D1
:102AF00002D1204600F036F9641C0A2CF0DB70BDD0
:102B000030DA00202DE9F74F84B04FF00A0B002493
:102B10000646DA465F46D94602940194CDF8004055
:102B2000514904EB440001EBC008039098F814509D
:102B30000A2F1DD0002D2AD0012D08D0022D06D23B
:102B40004AA340F2231257A166A0FFF76FF99EB186
:102B50003168D8F8040081420ED1069820B1D8F827
:102B600008100698814207D1204607B0BDE8F08FD3
:102B7000002DE1D127460AE0012D16D0022D06D303
:102B8000B8F812000099884201D3A2460090641C54
:102B900024B20A2CC4DB059881074FF0FF30E4D43F
:102BA0000A2F16D018DA3C463EE02F49039851F818
:102BB00030000028B8F8120005D002998842E6D308
:102BC000A1460290E3E701998842E0D3A346019031
:102BD000DDE70599C907C8D05146BAF10A0F0EDAE8
:102BE0000C46214801EB440150F8310080B11FA38D
:102BF00040F26D1245A13BA0FFF718F908E05946D5
:102C0000BBF10A0F03DB4946B9F10A0FADDA0C46F6
:102C10000A2C06DB15A340F27F1242A131A0FFF778
:102C200005F9204600F09EF80A2C06DB0FA340F2BF
:102C300083123CA12BA0FFF7F9F80B4804EB4401E9
:102C400000EBC105287D30B108A34FF4C2723AA150
:102C500024A0FFF7EBF80EB13068686000206882AE
:102C60000698A86080E7000030DA00202E2E2F4D55
:102C70006964646C6577617265732F546869726406
:102C80005F50617274792F4C7749502F7372632FA4
:102C9000636F72652F697076342F65746861727026
:102CA0002E6300007374617465203D3D20455448D7
:102CB0004152505F53544154455F50454E44494E34
:102CC00047207C7C207374617465203E3D20455410
:102CD000484152505F53544154455F535441424C14
:102CE00045000000417373657274696F6E20222580
:102CF0007322206661696C6564206174206C696E62
:102D00006520256420696E2025730A006172705F5A
:102D10007461626C655B695D2E71203D3D204E558E
:102D20004C4C000069203C204152505F5441424CC1
:102D3000455F53495A4500006172705F7461626C6F
:102D4000655B695D2E7374617465203D3D2045545B
:102D5000484152505F53544154455F454D5054597A
:102D60000000000070B5074C00EB4005002654F849
:102D7000350018B107F012F944F8356004EBC500CE
:102D8000067570BD30DA00202DE9F04385B00D00E6
:102D9000074609D07C684FF480782088404539D1B7
:102DA0002079062836D109E01CA340F28A2229A105
:102DB0002CA0FFF73BF805B0BDE8F083607904284C
:102DC00028D16088082825D1D4F80E000490A16984
:102DD000686820B1814202D10126334601E0002615
:102DE000022304F10802914604A9284600F0A2FB40
:102DF000E08840450ED16EB1022204ABCDE902322B
:102E0000291DCDE9001905F1260319464A46284631
:102E100000F090FA384607F0C1F8CCE72E2E2F4D7F
:102E20006964646C6577617265732F546869726454
:102E30005F50617274792F4C7749502F7372632FF2
:102E4000636F72652F697076342F65746861727074
:102E50002E6300006E6574696620213D204E554C3E
:102E60004C000000417373657274696F6E202225F7
:102E70007322206661696C6564206174206C696EE0
:102E80006520256420696E2025730A00FEB515466D
:102E90000E46040006D143A340F21E324FA153A0B8
:102EA000FEF7C4FF36B93FA340F21F3259A14FA02D
:102EB000FEF7BCFF35B93BA34FF4487258A14BA0B5
:102EC000FEF7B4FF2146286801F00CF808B1584B12
:102ED0003FE02868C0F303110E2925D0A16863687C
:102EE00000EA01020B409A4208D080B2A0F57E4170
:102EF000A93903D0E068B0B304F10C054D4B4E483E
:102F00001A7802EB420100EBC1010F7D022F2ED394
:102F10008F68A7422BD12F6849688F4227D131464D
:102F2000204600F08BF8FEBD01208DF80400002043
:102F30008DF805005E208DF80600687801AB00F082
:102F40007F008DF80700A8788DF80800E8788DF8E4
:102F500009004FF40060009004F12602314620463B
:102F600000F0C8FBFEBDFFE76FF00300FAE70022A8
:102F700002EB420100EBC1010F7D022F08D38F68E5
:102F8000A74205D12F6849688F4201D11A70C6E760
:102F9000521CD2B20A2AEBD332462946204600F010
:102FA000D5F8DFE72E2E2F4D6964646C657761726A
:102FB00065732F54686972645F50617274792F4C25
:102FC0007749502F7372632F636F72652F69707624
:102FD000342F6574686172702E6300006E657469C9
:102FE0006620213D204E554C4C0000004173736516
:102FF0007274696F6E2022257322206661696C6588
:1030000064206174206C696E6520256420696E20DF
:1030100025730A007120213D204E554C4C000000C4
:1030200069706164647220213D204E554C4C000053
:10303000AC370108AC00002030DA00202DE9F8435D
:103040000646154688461C4802EB450100EBC104C4
:10305000207D022806D219A340F2EE2225A131A03C
:10306000FEF7E4FE144A05EB4501207D02EBC105A5
:103070000C35022813D1608A0327B0F58E7F04D95E
:10308000211D304600F010FA07E0B0F5877F06D327
:103090002A46211D304600F00DFA00B927754FF47D
:1030A000006000902B4606F126024146304600F0B3
:1030B00021FBBDE8F883000030DA00202E2E2F4DD2
:1030C0006964646C6577617265732F5468697264B2
:1030D0005F50617274792F4C7749502F7372632F50
:1030E000636F72652F697076342F657468617270D2
:1030F0002E6300006172705F7461626C655B617267
:10310000705F6964785D2E7374617465203E3D2044
:103110004554484152505F53544154455F535441C4
:10312000424C4500417373657274696F6E202225AD
:103130007322206661696C6564206174206C696E1D
:103140006520256420696E2025730A002DE9FC5F47
:103150008246263001900E46086814464FF0FF372D
:103160004FF0000B514600F0BDFE80B93068C0F34F
:1031700003110E290BD056B148B1524601213046F9
:10318000FFF7C0FC050005D540B2BDE8FC9F6FF01D
:103190000F00FAE77F2D06D337A340F2C13244A1D6
:1031A00047A0FEF743FE05F0FF094F4909EB490828
:1031B00001EBC805287D00280ED0012808D0022880
:1031C00006D22DA340F2CD3248A13DA0FEF72EFE3F
:1031D000BBF1000F06D104E001202875C5F808A056
:1031E00000E034B93146504600F05EF90746002C45
:1031F000CBD0287D3C4E02280ED346494FF40060C8
:1032000005F10C0381F80090009021465046019A88
:1032100000F070FA07462DE001282BD1254640F238
:10322000F13768892989884207D1286828B112A313
:103230003A4639A122A0FEF7F9FD287B400607D5C2
:1032400022464FF420710E2006F0DEFC044605E015
:103250002D68002DE5D1204607F02EF844B156F830
:10326000380008B106F09AFE46F83840002701E021
:103270004FF0FF37384688E72E2E2F4D6964646C77
:103280006577617265732F54686972645F5061720B
:1032900074792F4C7749502F7372632F636F726567
:1032A0002F697076342F6574686172702E63000028
:1032B00074797065206F766572666C6F77000000B8
:1032C000417373657274696F6E20222573222066C4
:1032D00061696C6564206174206C696E6520256489
:1032E00020696E2025730A0030DA00206172705F59
:1032F0007461626C655B695D2E7374617465203DF9
:103300003D2050454E44494E47206F722053544152
:10331000424C4500AC0000206E6F207061636B650D
:10332000742071756575657320616C6C6F77656469
:10333000210000002DE9FF4F81B09846DDE90FA97B
:10334000DDF838B006004FF0000706D12CA340F29C
:10335000574239A13CA0FEF769FD4FF420721C21B1
:103360000E2006F005FA050046D068891C2806D212
:1033700023A340F262423EA133A0FEF757FD6C68E2
:10338000119801F0A3FEE08096F82C00062806D0E4
:103390001BA340F2694243492BA0FEF747FDD8F832
:1033A0000010A160B8F80400A081DAF80010C4F899
:1033B0001210BAF80400E082DBF80000C4F80E0036
:1033C000D9F80000A0614FF4807020800820608050
:1033D000062020710420607140F60600DDE902231A
:1033E00000902946304600F085F9284606F0D6FDC3
:1033F000384605B0BDE8F08F4FF0FF30F9E7000028
:103400002E2E2F4D6964646C6577617265732F543D
:10341000686972645F50617274792F4C7749502FDC
:103420007372632F636F72652F697076342F6574C2
:10343000686172702E6300006E6574696620213DBC
:10344000204E554C4C000000417373657274696FD7
:103450006E2022257322206661696C656420617488
:10346000206C696E6520256420696E2025730A0032
:10347000636865636B207468617420666972737435
:1034800020706275662063616E20686F6C642073C3
:103490007472756374206574686172705F686472B9
:1034A00000000000703C0108014A00F003B8000071
:1034B000AC3701087FB5064D031D0124CDE9003569
:1034C000CDE9021422331946FFF734FF04B070BD72
:1034D000B237010870B5164D002400BF04EB44005C
:1034E00005EBC002117DF1B1508A401C80B25082C0
:1034F000B0F5967F0AD2012906D003290AD0042903
:103500000AD001290BD00EE0052808D32046FFF78A
:1035100029FC08E0042000E00220107503E0111DE2
:103520009068FFF7C1FF641C0A2CD7DB70BD000058
:1035300030DA0020F8B5044690F82C001F461646F5
:103540000D46062806D020A340F2A9122CA135A0D2
:10355000FEF76CFC9DB1286888B1214600F0C2FCE2
:1035600068B92878C0F303100E2808D022463946DF
:103570002846FFF7C7FA002804DA40B2F8BD6FF01A
:103580000F00F8BD00EB40013048022300EBC10200
:10359000137594603368D360B38813820023538219
:1035A00050F8315075B140F831304FF40060009060
:1035B000334604F126022946204600F09BF82846AF
:1035C00006F0ECFC0020F8BD2E2E2F4D6964646CD3
:1035D0006577617265732F54686972645F506172B8
:1035E00074792F4C7749502F7372632F636F726514
:1035F0002F697076342F6574686172702E630000D5
:103600006E657469662D3E6877616464725F6C658F
:103610006E203D3D204554485F4857414444525F29
:103620004C454E00417373657274696F6E2022259C
:103630007322206661696C6564206174206C696E18
:103640006520256420696E2025730A0030DA002089
:103650002DE9F041044640890E270D460E283CD93D
:10366000E07B18B995F83000401CE0736068017881
:103670008689CA0714D0012905D006221C49FCF707
:10368000BEFE48B10CE0417851B980785E2807D180
:10369000607B40F0100002E0607B40F00800607347
:1036A000082E03D0B6F5C16F17D10DE095F82D00A7
:1036B000000712D53946204606F04CFE68B9294667
:1036C000204600F057FD10E095F82D00000704D5C6
:1036D0003946204606F03EFE18B1204606F05EFC54
:1036E00003E029462046FFF74FFB0020BDE8F081AC
:1036F000AC3701082DE9F04104461F4690460E46BE
:10370000069801F0E3FC05460E21304605F0CCFF9B
:1037100018B16FF00100BDE8F081706885813968EB
:103720000160B9888180D8F80020C0F80620B8F878
:103730000410418194F82C00062806D006A34FF40B
:10374000997213A11FA0FEF771FB31462046A269B2
:10375000BDE8F041104700002E2E2F4D6964646CC7
:103760006577617265732F54686972645F50617226
:1037700074792F4C7749502F7372632F6E6574697B
:10378000662F65746865726E65742E6300000000B4
:103790006E657469662D3E6877616464725F6C65FE
:1037A0006E206D757374206265203620666F7220FE
:1037B00065746865726E65745F6F75747075742179
:1037C00000000000417373657274696F6E202225DA
:1037D0007322206661696C6564206174206C696E77
:1037E0006520256420696E2025730A0010B5040049
:1037F00006D10BA340F2292210A114A0FEF716FB5C
:10380000732084F82E00742084F82F00194860611A
:103810001948A061204601F0F5FA002010BD000013
:103820002E2E2F4C5749502F5461726765742F65A7
:10383000746865726E657469662E63006E6574697E
:103840006620213D204E554C4C00000041737365AD
:103850007274696F6E2022257322206661696C651F
:1038600064206174206C696E6520256420696E2077
:1038700025730A008D2E0008E54F0008104E0446FF
:103880004FF0FF373946306805F0B2FE0028F9D115
:103890000C4807F059FE204601F044FB05000AD011
:1038A00022692146904710B1284606F077FB05486B
:1038B00007F05EFEECE7034807F05AFEE2E700007F
:1038C000F80800106C0900107047000008B50446A5
:1038D000002000906A4601210C48FDF7F5F9009898
:1038E00000F004000090216891F82D20520704D4C4
:1038F00038B1084605F04EFC03E010B9084605F063
:10390000F3FBC82005F0F6FCE4E70000E0310020FE
:103910002DE9FC41002506460195009590F82D0003
:10392000400742D5254C606868B34FF480520021AF
:103930002046FDF71BFBFDF737FC4FF47A7701902B
:103940006A4601211D48FDF7BFF9FDF72DFC0199DD
:10395000401AB84217D800988006F1D56A461F2150
:103960001648FDF7B1F90098C10603D54FF4006180
:10397000E16000E0E560400701D5A5600DE04FF48F
:103980008040A06009E0E068A168C00840EA5100FA
:1039900082B200210948FDF7E9FA00210748FCF747
:1039A00099FE0648FDF7D8F902E00448FDF716FA3B
:1039B0003046FFF789FFBDE8FC810000E0310020C0
:1039C000054A914202D0054A914201D1FEF74AB818
:1039D0004FF0FF3070470000BC000020D0090010FD
:1039E00004468AB0D4E900500026DFF87881814689
:1039F0000396ADF80860019603A9484604F024FE3A
:103A000000286CD102AA01A9039804F069F905F114
:103A10000E010198FEF770FC052253A10198FCF7F6
:103A200004FD00285BD1019904F10800BDF80820CD
:103A30000746091DFCF7B8FC4DA13846FCF704FD0C
:103A4000070009D049A1FCF7CCFC48B34FEA0701B5
:103A500004F58160FCF7E0FC04F5816045A10746B0
:103A6000FCF790FCF0B104F585608246D4F8481468
:103A7000FCF771FCD5F8F0183846884707465046E1
:103A8000D8F80010FCF772FC39465046FCF76EFC83
:103A90005046FCF79FFC02460023514600961BE06F
:103AA00035A1D5E7002704F2094A09E0A86807EB29
:103AB000C70100EBC1015046FCF793FC80B17F1CAD
:103AC0006868B842F2D84746D8F80400FCF782FC90
:103AD0000096796802460123484604F0BDFF31E0B4
:103AE00007EBC7004022A96802EBC0028B582A6886
:103AF00003EB020A442202EBC00000220F5801200F
:103B00008DF8200001460FF02CF800906846CDE9B2
:103B100006A0CDE9049700231A4604A9D8F810009E
:103B20000FF0BAF84FF4967208A900980FF010FA47
:103B3000012801D18DF8206000980EF023FD0A20A5
:103B400005F0D8FB484604F0E1FA039804F046F982
:103B5000484604F037FBD4F84C04067200200EF0FF
:103B600063FD49E700000020474554202F00000076
:103B700020000000617069002F696E6465782E680E
:103B8000746D6C0086B00022102105200EF0E9FF54
:103B90000E4D0024661E28618DF80440324602A9AD
:103BA00028690FF0D5F9DDE9020200940023049999
:103BB00004F052FF462005F09DFB059800231A46AD
:103BC000006801A90FF068F8E8E700000000002095
:103BD0000A46032100F0F4B82DE9FE4F8A46444915
:103BE0000446D1F8088098F800000007850E142DCF
:103BF00079D36089042876D360680078002872D071
:103C0000082870D1486901F11407C0F303120E2A85
:103C100069D08946096800F065F9002863D12089D8
:103C2000082860D305F10E010E46204605F03CFD44
:103C3000002830D02089411989B2884253D84FF4E6
:103C400020720E2005F094FD06004CD0718905F11C
:103C50000800814216D32A4641467068FCF754FB9F
:103C60002946304606F076FB002806D021A3B6226E
:103C70002EA13CA0FEF7DAF804E02146304606F01B
:103C800011F818B1304606F089F92CE0204606F00C
:103C900085F934460CE03146204606F05BFB0028EF
:103CA00006D014A3C72239A12EA0FEF7BFF81AE050
:103CB00029462046666805F0F7FCA0B960683968B7
:103CC000FF22C160D9F810100161002131707180AC
:103CD0000272418101228DE806040A46FF2339461B
:103CE000204600F017FB2046BDE8FE4F06F056B90F
:103CF0005C0D00102E2E2F4D6964646C6577617227
:103D000065732F54686972645F50617274792F4CC7
:103D10007749502F7372632F636F72652F697076C6
:103D2000342F69636D702E630000000069636D704D
:103D30005F696E7075743A206D6F76696E67207278
:103D40002D3E7061796C6F616420746F2069636DC2
:103D50007020686561646572206661696C65640ADB
:103D600000000000417373657274696F6E20222534
:103D70007322206661696C6564206174206C696ED1
:103D80006520256420696E2025730A0069636D70C3
:103D90005F696E7075743A20726573746F72696EC4
:103DA00067206F726967696E616C20702D3E70616B
:103DB000796C6F6164206661696C65640A0000005B
:103DC0002DE9FF479146884606464FF4207224218C
:103DD000222005F0CDFC050031D06889242806D2C8
:103DE00018A34FF4B47225A12FA0FEF71FF86C683A
:103DF00077681C2284F8008084F801904FF0000856
:103E0000A4F80480A4F80680686871680830FCF79C
:103E10007BFAF868039003A800F08CFC60B1A4F86A
:103E200002800122CDF80080CDE90120FF2303AA02
:103E30000021284600F06EFA284606F0AFF8BDE8EB
:103E4000FF8700002E2E2F4D6964646C65776172C8
:103E500065732F54686972645F50617274792F4C76
:103E60007749502F7372632F636F72652F69707675
:103E7000342F69636D702E63000000006368656312
:103E80006B20746861742066697273742070627547
:103E9000662063616E20686F6C642069636D7020BA
:103EA0006D65737361676500417373657274696FE3
:103EB0006E2022257322206661696C65642061741E
:103EC000206C696E6520256420696E2025730A00C8
:103ED0000A460B21FFF774BFEFF30580002800D0DE
:103EE00001207047421C12D088B191F82D20920712
:103EF0000BD54B68834208D0896800EA01020B4069
:103F00009A4202D10143491C01D000207047012090
:103F1000704700002DE9F74F88B004460998002546
:103F20001426808CAF1F1438C11700EB5170C0F3FA
:103F3000CF00039060680690017801F00F01052919
:103F400003D038460BB0BDE8F08F6189142907D241
:103F50005BA34FF43F7269A16FA0FDF767FFF0E725
:103F6000C08801F0B3F8C0F30C0100F400500291D6
:103F70000790208914381FFA80F88EE003984FF6D6
:103F8000FF7101EAC0004146404500D9084604904F
:103F90004FF4207214210E2005F0EAFB5FEA000ABC
:103FA0007ED0BAF80A00142806D245A34FF449720D
:103FB00063A159A0FDF73AFF1422DAF8040006992C
:103FC000FCF7A2F9DAF804000590049F35E0608957
:103FD000811B8DB2B04206D239A340F22D3260A1CE
:103FE0004DA0FDF723FFAF4200D23D461DB3052093
:103FF00003F094FD5FEA000957D060684B463044F7
:10400000CDE9000541222946002005F037FD5FEA91
:10401000000B50D0204606F04FF95549C9E9041469
:104020005946504605F046FD781B07043F0C06D064
:1040300000262468CBE724680026002FC7D170191A
:1040400086B20998808C143840450298C0F30C0061
:1040500001DB079909B140F4005001F037F80599E8
:10406000C8800498143080B201F030F80599488077
:10407000059800214181099851460A9A4369984759
:10408000504605F08BFF0499A8EB01001FFA80F859
:10409000DDE90201084480B20290B8F1000F00E0AF
:1040A00006E07FF46BAF00204CE7504605F076FF4A
:1040B0004FF0FF3046E7484600F06CFBF5E70000A4
:1040C0002E2E2F4D6964646C6577617265732F5471
:1040D000686972645F50617274792F4C7749502F10
:1040E0007372632F636F72652F697076342F6970F6
:1040F000345F667261672E63000000006970345F90
:104100006672616728293A207062756620746F6F45
:104110002073686F72740000417373657274696F05
:104120006E2022257322206661696C6564206174AB
:10413000206C696E6520256420696E2025730A0055
:1041400074686973206E65656473206120706275A0
:104150006620696E206F6E65207069656365210059
:10416000702D3E6C656E203E3D20706F66660000CF
:104170006D4D00082DE9F047456807460E46287842
:104180000421B1EB101F03D0384605F007FF77E09C
:1041900000074FEA9068688800F098FF0446388965
:1041A000A04203D92146384605F0ECFF7989414504
:1041B000EAD33889A042E7D3B8F1140FE4D32969D0
:1041C000DFF81C91C1F303100E28C9F81410EA6837
:1041D000C9F8102005D0304600F086F850B13446BA
:1041E00019E096F82D00C00702D070680028F6D1BB
:1041F000002410E099F8140000247F280BD03948DF
:10420000046806E0B44203D0204600F06DF810B90F
:104210002468002CF6D13146D9F81000FFF762FE71
:104220000028B1D199F81000C0F303100E28ABD0CC
:10423000002CA9D0E88830F0C00005D0384600F046
:1042400035F907001CD07D68C9F80850C9E9004657
:10425000297838460907890EA9F80C10414606F05E
:1042600079F8687A012818D0062811D011280AD0C8
:104270004D462146D9F81400FFF734FE90B11EE0F8
:104280000020BDE8F087314638460DF0E3FB19E029
:104290003146384608F08AFA14E031463846FFF7CE
:1042A0009BFC0FE0287DC0F303100E2807D0414689
:1042B000384605F03FFF02213846FFF789FC3846B3
:1042C00005F06CFE0021C9F80010C9F80410C9F807
:1042D0000810A9F80C10C9F81010C9F81410CFE78D
:1042E0005C0D00107C00002010B590F82D10C9075F
:1042F0000CD0416851B1064A52698A4204D0014645
:104300001046FFF7EFFD08B1012010BD002010BDE1
:104310005C0D0010FEB5DDE90954089E1AB109B123
:104320000F6807B9211D0096CDE9015400F002F88D
:10433000FEBD00002DE9F84F0546DDE90BA8807BA6
:10434000DDF828B01F4616468946012806D02FA35F
:104350004FF455723AA13DA0FDF768FD6FF00104DE
:10436000002E35D01421284605F09EF9002832D1C0
:1043700068896C68142806D224A34FF462723DA1A8
:1043800032A0FDF753FD277284F809A03068206140
:104390004520207084F801B0288900F097FE414F35
:1043A00060804FF0000AA4F806A0388800F08EFE66
:1043B000A0803888401C3880B9F1000F05D0D9F8AA
:1043C0000000E060A4F80AA00CE037480068F8E7B5
:1043D0006889142802D22046BDE8F88F68686E46C6
:1043E00000690090B8F8240040B12989814205D9BC
:1043F000324641462846FFF78DFDEDE7D8F81430E8
:104400004046324629469847E6E700002E2E2F4DBB
:104410006964646C6577617265732F54686972644E
:104420005F50617274792F4C7749502F7372632FEC
:10443000636F72652F697076342F6970342E630054
:10444000702D3E726566203D3D20310041737365DD
:104450007274696F6E2022257322206661696C6513
:1044600064206174206C696E6520256420696E206B
:1044700025730A00636865636B2074686174206645
:104480006972737420706275662063616E20686F54
:104490006C64207374727563742069705F686472F1
:1044A00000000000AE000020103901082DE9F05F87
:1044B00045688346287800F00F0005287DD1E888FC
:1044C00000F004FEC004070C688800F0FFFD2978A6
:1044D0000907890E814270D8401A1FFA80F85846A1
:1044E00005F089FB6A4C0646208830440A2809D921
:1044F0003146284600F0E4FB00285ED02088304496
:104500000A28E8D8A14664684FF0000A0CE0606908
:10451000E968884207D1A0692969884203D1A08946
:10452000A988884203D02468002CF0D106E02CB181
:10453000E88800F0CBFDC0041BD025E0042003F088
:10454000EDFA04000AD13146284600F0B9FBB0422A
:1045500033DB042003F0E2FA0400CED02021FBF785
:10456000FAFE0F20E077D9F804102160C9F8044062
:1045700004E0E08900F0AAFDC00405D01422294619
:1045800004F10800FBF7C0FEA87940F340156D1C4C
:1045900008D007EB080080B2B84263D34FF6EB7146
:1045A00088425FD82A465946204600F03BF9411C14
:1045B00058D0B9F80020324400E064E0A9F80020A7
:1045C00035B107EB0801A183A17F41F00101A1777B
:1045D000012845D1A08B1422143087B2606804F101
:1045E0000801456828462E68FBF78EFE384600F025
:1045F0006DFD6880A5F806A0A5F80AA0656809E029
:1046000014213046776805F0A5FE3146284605F0AE
:1046100051FA3E68002EF3D1D9F804104E468C4270
:1046200005D1002105E00868A04202D0014600291A
:10463000F9D1204600F01AFA284605F0DCFA0446C3
:104640003088A04206D213A340F29B2220A127A0CB
:10465000FDF7ECFB3088001B30802846BDE8F09F5A
:104660000020FBE7606870B9D9F80400844206D0E6
:1046700008A340F2AB2227A11CA0FDF7D7FB002125
:10468000204600F0F3F9584605F088FCE8E7000002
:10469000B00000202E2E2F4D6964646C6577617226
:1046A00065732F54686972645F50617274792F4C1E
:1046B0007749502F7372632F636F72652F6970761D
:1046C000342F6970345F667261672E6300000000EA
:1046D00069705F72656173735F70627566636F7531
:1046E0006E74203E3D20636C656E000041737365FF
:1046F0007274696F6E2022257322206661696C6571
:1047000064206174206C696E6520256420696E20C8
:1047100025730A006E6F74206669727374616C741D
:10472000686F756768206A75737420656E7175654A
:104730007565640070B50146144813E090F82D20AB
:10474000D3070FD053070DD543685BB184680D685C
:10475000234005EA04069E4216D0920702D4C2689E
:10476000954211D000680028E8D10948006850B18E
:1047700090F82D20D30706D0520704D5426812B115
:1047800009787F2900D1002070BD00007C00002046
:104790008000002010B5040006D106A34FF431724A
:1047A00013A116A0FDF742FB2146BDE810400520ED
:1047B00003F040B92E2E2F4D6964646C65776172E9
:1047C00065732F54686972645F50617274792F4CFD
:1047D0007749502F7372632F636F72652F697076FC
:1047E000342F6970345F667261672E6300000000C9
:1047F0007020213D204E554C4C00000041737365E4
:104800007274696F6E2022257322206661696C655F
:1048100064206174206C696E6520256420696E20B7
:1048200025730A002DE9F05F4C68064693460F4653
:1048300000254FF00108608800F048FC21784FF017
:10484000FF3A0907890E814231D8A0EB0109E088BF
:1048500000F03CFCC0047C68010C0020206001EBEF
:10486000090083B2A180E3808B4220D3726829E0E3
:104870005068B0F804C0614515D222606DB1B5F83A
:1048800006C0614513D38088834210D82F60A0886A
:10489000844506D04FF0000803E08088834206D8A4
:1048A00077608AB12EE002D0C288914202D250468F
:1048B000BDE8F09F25B1EA88624501D04FF00008BD
:1048C00002680546002AD3D195B1E888A1888842BC
:1048D00006D92AA34FF4DB7237A13FA0FDF7A6FA51
:1048E0002F60E888A18888420CD04FF0000809E0CA
:1048F000706830B121A34FF4DF7241A136A0FDF7FB
:1049000095FA7760BBF1000F02D1B07FC007CFD01E
:10491000B8F1000F30D07268002A2DD0506880881E
:10492000002829D12168204629B14C68C088A18877
:104930008842F7D020E0B8F1000F1DD032B90FA3A4
:1049400040F2DF123CA124A0FDF770FA70684068C5
:10495000A04206D109A34FF4F07237A11EA0FDF7C3
:1049600065FA206830B105A34FF4F17236A11AA0A0
:10497000FDF75CFA01209BE7002099E72E2E2F4DD2
:104980006964646C6577617265732F5468697264D9
:104990005F50617274792F4C7749502F7372632F77
:1049A000636F72652F697076342F6970345F667239
:1049B00061672E6300000000636865636B206672A8
:1049C00061676D656E747320646F6E2774206F76F7
:1049D00065726C6170000000417373657274696F79
:1049E0006E2022257322206661696C6564206174E3
:1049F000206C696E6520256420696E2025730A008D
:104A00006E6F2070726576696F757320667261676C
:104A10006D656E742C2074686973206D75737420D5
:104A200062652074686520666972737420667261BD
:104A3000676D656E7421000073616E69747920631F
:104A40006865636B0000000076616C696461746581
:104A50005F646174616772616D3A6E6578745F70EE
:104A6000627566213D4E554C4C00000070B5044601
:104A70000C480D464168A14202D1216841600AE01C
:104A8000002D06D108A340F2451216A11CA0FDF787
:104A9000CDF9206828602146BDE87040042002F06E
:104AA000C9BF0000B00000202E2E2F4D6964646C39
:104AB0006577617265732F54686972645F506172C3
:104AC00074792F4C7749502F7372632F636F72651F
:104AD0002F697076342F6970345F667261672E6358
:104AE0000000000073616E69747920636865636B10
:104AF000206C696E6B6564206C6973740000000043
:104B0000417373657274696F6E202225732220666B
:104B100061696C6564206174206C696E6520256430
:104B200020696E2025730A002DE9F0470546002410
:104B30000F46A94205D12FA3AB223DA13FA0FDF70F
:104B400075F9002F08D03868A84205D029A3AD22F6
:104B500044A13AA0FDF76AF96E684FF48038706896
:104B6000818800291AD100686860142205F10801C3
:104B70007068FBF7C9FB01213046FFF7A9F9304601
:104B800005F039F80446404505D31AA3BC223AA1E2
:104B90002AA0FDF74BF9304605F000FA6E6812E0E6
:104BA0007068B1460668484605F025F80444444557
:104BB00005D310A3CC2230A120A0FDF737F9A4B271
:104BC000484605F0EBF9002EEAD139462846FFF7B2
:104BD0004DFF314D2888A04205D206A3D2222FA135
:104BE00016A0FDF723F92888001B28802046BDE881
:104BF000F08700002E2E2F4D6964646C657761721A
:104C000065732F54686972645F50617274792F4CB8
:104C10007749502F7372632F636F72652F697076B7
:104C2000342F6970345F667261672E630000000084
:104C30007072657620213D20697072004173736542
:104C40007274696F6E2022257322206661696C651B
:104C500064206174206C696E6520256420696E2073
:104C600025730A00707265762D3E6E657874203D5E
:104C70003D2069707200000070627566735F667235
:104C8000656564202B20636C656E203C3D20307888
:104C90006666666600000000B000002069705F7202
:104CA000656173735F70627566636F756E74203EC5
:104CB0003D2070627566735F667265656400000012
:104CC0002DE9F0471D4F8946064600240022134671
:104CD00011461546786822E0D0F814C0D6F80C804A
:104CE000C4450BD1D0F818C0D6F81080C44505D102
:104CF000B0F80CC0B6F80480C44509D06D1C2AB1C8
:104D000090F81FC092F81F80C44501D8024619468A
:104D1000D0F800C0BCF1000F00D003466046002868
:104D2000DAD11AB11046FFF7FFFE04444C4501DA10
:104D3000012DCBDC2046BDE8F0870000B00000204C
:104D400070B50948002544680BE0E07F20B1401EA3
:104D5000E0772546246804E0204624682946FFF7CA
:104D6000E3FE002CF1D170BDB000002010B50400AE
:104D700006D108A340F2CE2215A118A0FDF756F8DF
:104D8000606908B105F00AF92046BDE81040FFF758
:104D900001BD00002E2E2F4D6964646C6577617231
:104DA00065732F54686972645F50617274792F4C17
:104DB0007749502F7372632F636F72652F69707616
:104DC000342F6970345F667261672E6300000000E3
:104DD00070637220213D204E554C4C004173736529
:104DE0007274696F6E2022257322206661696C657A
:104DF00064206174206C696E6520256420696E20D2
:104E000025730A0070B58CB0414D044600263F481A
:104E100000962860012068602E828DF80460802151
:104E20008DF80510E1218DF806108DF808608DF8D9
:104E300007608DF8096001A9C5E90510C005C5E93D
:104E400007602846FBF7D6FD28B994F82D0040F0FE
:104E5000040084F82D0004232E4A2F492C48FBF728
:104E60000BFD2D4A04238032A2F580712848FBF700
:104E7000C9FC062084F82C0068690121007884F8B8
:104E800026006869407884F827006869807884F88B
:104E900028006869C07884F829006869007984F876
:104EA0002A006869407984F82B0040F2DC50A08425
:104EB00094F82D0040F00A0084F82D00039603A812
:104EC000049604F039FB15491C220860144905A812
:104ED000FBF71AFA214605A804F0BCFB0C48FBF7C7
:104EE0003BFF6A461D210A48FBF7EEFE00981D2194
:104EF00040F00B0206480092FCF738F86A461D2184
:104F00000348FBF7E1FE0CB070BD000000800240DA
:104F1000E0310020101A0020C0010020F808001025
:104F20005C3701082DE9F84F0020044600902C481A
:104F3000FBF7DFFC10B10020BDE8F88F2848818F17
:104F4000D0F840900904090C2FD04FF4C172002012
:104F500004F00EFC009040B32148009D40F2F45B49
:104F6000D0F830806E89002710E000BFA4F2F45220
:104F70005242FBF7C9F9D8F80C008046D0F80890E7
:104F80003F1BAAF2F456002407F2F457686806EBB8
:104F9000040ADA4509EB04013844E7D83246FBF746
:104FA000B3F92D683444002DDCD10D480022016B8B
:104FB00005E00B6843F000430B60C968521C836B2B
:104FC0009342F6D800218163006800F58050426961
:104FD000120602D58022426181600098ACE7000091
:104FE000E03100202DE9F05F27480D46C66A002019
:104FF00083460446D6F808A031E0306800280CDB70
:105000006F894FF0000818E0A4F2F4525242FBF707
:105010007BF9F6683068002802DA6FF0070025E0B7
:10502000D6F808A0A8EB040000F2F458ABEB04009B
:10503000A9F2F45700F2F45B002407EB040940F2F4
:10504000F451894569680AEB04004144DCD83A46CA
:10505000FBF75AF90BEB07002D683C448346002D03
:10506000CBD101460848FBF7FBFE00200649096842
:1050700001F580514A69920603D520224A61002237
:105080004A60BDE8F09F0000E031002010B5044602
:105090004068804706F06FFA094A216852688B1809
:1050A0001A1AB2F1004F03D308442246054902E020
:1050B000044922461846BDE8104006F0FDBA00003B
:1050C000B80900108D50000800BA704740BA704708
:1050D00010B506F0FBF902F029FA02F0F9FC03F032
:1050E0000FFF0CF0ABFC07F055FBFDF747FABDE8EE
:1050F000104006F05DBB10B5026804466FF0050174
:10510000506830B1127802F0F002102A09D0202A3B
:1051100002D00846207110BDA289A1680CF0F4FBF2
:10512000F8E7A289A16806F02DFDF3E770B50168E4
:1051300004466FF00A024B684878002B4DD00B787C
:105140000125B5EB131F48D1237A032B01D0022888
:1051500043D0032841D001283CD0D80702D00846CC
:1051600003F03FF82068006A30B11DA340F2BD7221
:1051700028A12FA0FCF75AFE21680420487020685F
:1051800000210462206800F06DF8002824D0206817
:105190004078042806D012A340F2C2722EA124A0A7
:1051A000FCF744FE2E4806F0E3F9206800210C309D
:1051B00006F048F92A4806F0C7F920684078002828
:1051C0000AD0BDE8704006A340F2C67222A118A022
:1051D000FCF72CBEFB20207170BD227170BD000059
:1051E0002E2E2F4D6964646C6577617265732F5440
:1051F000686972645F50617274792F4C7749502FDF
:105200007372632F6170692F6170695F6D73672EB0
:1052100063000000616C7265616479207772697463
:10522000696E67206F7220636C6F73696E67000030
:10523000417373657274696F6E2022257322206634
:1052400061696C6564206174206C696E65202564F9
:1052500020696E2025730A00737461746521000053
:105260006C0900102DE9F0478A46040006D169A3B5
:1052700040F2A23274A178A0FCF7D8FD2078012179
:10528000B1EB101F06D063A340F2A3327CA172A041
:10529000FCF7CCFD6078042806D05EA34FF4697259
:1052A0007FA16DA0FCF7C2FD606830B959A340F240
:1052B000A53284A168A0FCF7B9FD206A30B955A3D6
:1052C00040F2A63284A164A0FCF7B0FD206AD4F8B5
:1052D0000480007A00F0010900F0020703280FD0D3
:1052E000B9F1000F07D098F81400052808D0062857
:1052F00006D0082804D04FB198F81A00C00605D58A
:1053000001260021404606F039FC00E0002698F80E
:10531000140001281DD0B9F1000F07D0002140462C
:105320000AF086F80021404606F043FB1FB1002139
:1053300040460AF0BDFD96B100221146404609F0F4
:10534000ABF80021404607F099F8404606F0C0FC53
:105350000AE00021404606F02CFB002EF5D13A462B
:10536000494640460AF0F6FD05000ED0681C0CD1F7
:10537000206A407A20B198F8140001282FD035E037
:105380001EB1404606F012FB0025206A0168057137
:105390000020206201F10C086070BDB936B1606078
:1053A000636A1BB10022042120469847B9F1000F1F
:1053B00005D0636A1BB100221146204698472FB1E1
:1053C000636A1BB10022022120469847BAF1000F00
:1053D00002D0404606F0EDF80020BDE8F0870DA3AE
:1053E00040F2414243A11CA0FCF720FD1FB14A49F5
:1053F00040460AF05DFD01224849404609F04CF85C
:105400004749404607F03AF82146404606F0B6FBC9
:105410002846E2E72E2E2F4D6964646C6577617231
:1054200065732F54686972645F50617274792F4C90
:105430007749502F7372632F6170692F6170695FB4
:105440006D73672E63000000696E76616C6964207D
:10545000636F6E6E00000000417373657274696F54
:105460006E2022257322206661696C656420617458
:10547000206C696E6520256420696E2025730A0002
:105480007468697320697320666F7220746370207A
:105490006E6574636F6E6E73206F6E6C79000000C2
:1054A000636F6E6E206D75737420626520696E2067
:1054B0007374617465204E4554434F4E4E5F434CA8
:1054C0004F53450070636220616C7265616479209E
:1054D000636C6F7365640000636F6E6E2D3E637561
:1054E0007272656E745F6D736720213D204E554C5E
:1054F0004C000000436C6F73696E672061206C691B
:105500007374656E20706362206D6179206E6F74B4
:10551000206661696C210000B1B2000831A9000861
:105520001129000870B5044600684578002D16D092
:1055300000780121B1EB101F06D03AA340F25E4281
:1055400045A14AA0FCF772FC022D08D0032D03D11F
:105550002068007F400702D4FB20207121E0002555
:105560002571206802F03DFE2068416869B102782B
:1055700002F0F002102A1AD0202A04D1CD6120684E
:1055800040680CF04FFC206845602068436A43B1D6
:105590000022114698472068436A13B10022022175
:1055A00098472068BDE870400C3006F005B8006AE6
:1055B00030B11CA340F2944236A12CA0FCF736FC7B
:1055C00021680420487003202072206800210462B2
:1055D0002068FFF747FE002822D020684078042882
:1055E00006D010A340F29A4231A120A0FCF71EFC85
:1055F000314805F0BDFF206800210C3005F022FF86
:105600002D4805F0A1FF20684078002808D0BDE8AB
:10561000704004A340F29E4225A114A0FCF706BCF2
:1056200070BD00002E2E2F4D6964646C6577617229
:1056300065732F54686972645F50617274792F4C7E
:105640007749502F7372632F6170692F6170695FA2
:105650006D73672E630000006E6574636F6E6E205D
:105660007374617465206572726F72004173736543
:105670007274696F6E2022257322206661696C65E1
:1056800064206174206C696E6520256420696E2039
:1056900025730A00616C72656164792077726974A0
:1056A000696E67206F7220636C6F73696E670000AC
:1056B00073746174652100006C090010F8B501680D
:1056C00004466FF00A02486848B10B780125B5EB33
:1056D000131F4DD14978002621B1022942D08DF8FF
:1056E000002041E0017D21B15FF0FA008DF800005B
:1056F0003AE0FF216A4607F0B3FD050034D0206888
:10570000103005F01CFF38B12068103005F0EAFEBB
:105710002068103005F006FF8DF800602068143016
:1057200005F00DFF30B920680621143005F0E4FEC5
:105730008DF800009DF8000028B1284606F0C8FA50
:105740002068466010E021680220487021682846E1
:105750004D60216806F012FA20680649406806F09C
:1057600028F901E08DF800609DF800002071F8BD77
:10577000F020BBE781210008002101710168496820
:10578000002901D104F088BF70472DE9F04104469B
:105790000020207120684168002915D0007801217F
:1057A000B1EB101F10D1A5680F044FF6FF78BD4272
:1057B00001D3404600E0284686B220683146406862
:1057C00009F0E0FEAD1BF2D1BDE8F08110B5044652
:1057D000006802F054FD002850D1206801210278B1
:1057E000B1EB121F48D142780AB1881F46E04268E7
:1057F000002A3ED041702068006A30B120A340F2F8
:1058000023722CA132A0FCF711FB606930B91CA3F4
:1058100040F2247238A12EA0FCF708FB206800217A
:105820000462206800F078F8002828D020684078CA
:10583000012806D012A34FF4E56234A124A0FCF79E
:10584000F5FA344805F094FE206800210C3005F08C
:10585000F9FD304805F078FE2068407801280ED127
:10586000BDE8104006A340F22C7228A118A0FCF756
:10587000DDBA6FF00A0001E06FF00500207110BD85
:105880002E2E2F4D6964646C6577617265732F5499
:10589000686972645F50617274792F4C7749502F38
:1058A0007372632F6170692F6170695F6D73672E0A
:1058B00063000000616C72656164792077726974BD
:1058C000696E67206F7220636C6F73696E6700008A
:1058D000417373657274696F6E202225732220668E
:1058E00061696C6564206174206C696E6520256453
:1058F00020696E2025730A006D73672D3E6D7367F6
:105900002E772E6C656E20213D20300073746174FB
:10591000652100006C0900102DE9F34F81B00400EF
:105920004FF0000A06D188A340F2736293A197A0BA
:10593000FCF77CFA6078012806D083A340F27462F9
:105940009CA192A0FCF772FA206A002806D17EA3DF
:1059500040F275629FA18DA0FCF768FA606830B9CB
:1059600079A340F27662A2A188A0FCF75FFA206AD0
:1059700081694069814206D373A340F27762A2A194
:1059800082A0FCF753FA206A8089002806D16EA312
:1059900040F27962ACA17DA0FCF748FA206A077F4B
:1059A000207F800701D4780701D5012000E0002086
:1059B00080464FF6FF7B216A4FF480398868096979
:1059C00002680A4400924268551A4D4503D35E4668
:1059D00047F0020700E0AEB26068B0F86400B04281
:1059E0000ED20646B8F1000F08D04EB9206A806981
:1059F00008B100254EE06FF006054BE047F00207C6
:105A00008819904206D950A340F2A36298A15FA0E2
:105A1000FCF70CFA5E4501D14D4506D2A8B2B04262
:105A200008D1206A8089012804D94FF0010947F084
:105A3000020701E04FF000093B46324660680099DA
:105A40000BF020F8050019D1206A81693144816189
:105A5000206A016931440161206A8268526891427A
:105A60000CD18189491E0904090C8181206A05D065
:105A7000816808318160216A00200861B9F1000F56
:105A800002D0002D97D000E00DB1681C45D1B8F1CF
:105A9000000F0FD0206A8169406981420AD2636A8F
:105AA0001BB10022032120469847207F40F01000C0
:105AB00020770FE06068B0F86410B1F5866F03D30B
:105AC000B0F86600052805D3636A1BB100220321E4
:105AD0002046984715B1681C13D01EE0206A8169E2
